{
  "contractName": "Session",
  "abi": [
    {
      "constant": true,
      "inputs": [],
      "name": "creator",
      "outputs": [
        {
          "name": "",
          "type": "address"
        }
      ],
      "payable": false,
      "stateMutability": "view",
      "type": "function"
    },
    {
      "constant": true,
      "inputs": [],
      "name": "name",
      "outputs": [
        {
          "name": "",
          "type": "string"
        }
      ],
      "payable": false,
      "stateMutability": "view",
      "type": "function"
    },
    {
      "constant": true,
      "inputs": [
        {
          "name": "",
          "type": "address"
        }
      ],
      "name": "pricings",
      "outputs": [
        {
          "name": "",
          "type": "uint256"
        }
      ],
      "payable": false,
      "stateMutability": "view",
      "type": "function"
    },
    {
      "constant": true,
      "inputs": [],
      "name": "timeOut",
      "outputs": [
        {
          "name": "",
          "type": "uint256"
        }
      ],
      "payable": false,
      "stateMutability": "view",
      "type": "function"
    },
    {
      "constant": true,
      "inputs": [],
      "name": "description",
      "outputs": [
        {
          "name": "",
          "type": "string"
        }
      ],
      "payable": false,
      "stateMutability": "view",
      "type": "function"
    },
    {
      "constant": true,
      "inputs": [],
      "name": "stateBefore",
      "outputs": [
        {
          "name": "",
          "type": "uint8"
        }
      ],
      "payable": false,
      "stateMutability": "view",
      "type": "function"
    },
    {
      "constant": true,
      "inputs": [
        {
          "name": "",
          "type": "uint256"
        }
      ],
      "name": "iParticipants",
      "outputs": [
        {
          "name": "",
          "type": "address"
        }
      ],
      "payable": false,
      "stateMutability": "view",
      "type": "function"
    },
    {
      "constant": true,
      "inputs": [],
      "name": "nParticipants",
      "outputs": [
        {
          "name": "",
          "type": "uint256"
        }
      ],
      "payable": false,
      "stateMutability": "view",
      "type": "function"
    },
    {
      "constant": true,
      "inputs": [
        {
          "name": "",
          "type": "address"
        }
      ],
      "name": "deviations",
      "outputs": [
        {
          "name": "",
          "type": "uint256"
        }
      ],
      "payable": false,
      "stateMutability": "view",
      "type": "function"
    },
    {
      "constant": true,
      "inputs": [],
      "name": "state",
      "outputs": [
        {
          "name": "",
          "type": "uint8"
        }
      ],
      "payable": false,
      "stateMutability": "view",
      "type": "function"
    },
    {
      "constant": true,
      "inputs": [],
      "name": "mainContract",
      "outputs": [
        {
          "name": "",
          "type": "address"
        }
      ],
      "payable": false,
      "stateMutability": "view",
      "type": "function"
    },
    {
      "constant": true,
      "inputs": [],
      "name": "timeStop",
      "outputs": [
        {
          "name": "",
          "type": "uint256"
        }
      ],
      "payable": false,
      "stateMutability": "view",
      "type": "function"
    },
    {
      "constant": true,
      "inputs": [],
      "name": "proposedPrice",
      "outputs": [
        {
          "name": "",
          "type": "uint256"
        }
      ],
      "payable": false,
      "stateMutability": "view",
      "type": "function"
    },
    {
      "constant": true,
      "inputs": [],
      "name": "image",
      "outputs": [
        {
          "name": "",
          "type": "string"
        }
      ],
      "payable": false,
      "stateMutability": "view",
      "type": "function"
    },
    {
      "inputs": [
        {
          "name": "_mainContract",
          "type": "address"
        },
        {
          "name": "_name",
          "type": "string"
        },
        {
          "name": "_description",
          "type": "string"
        },
        {
          "name": "_image",
          "type": "string"
        }
      ],
      "payable": false,
      "stateMutability": "nonpayable",
      "type": "constructor"
    },
    {
      "constant": false,
      "inputs": [
        {
          "name": "_timeOut",
          "type": "uint256"
        }
      ],
      "name": "startSession",
      "outputs": [],
      "payable": false,
      "stateMutability": "nonpayable",
      "type": "function"
    },
    {
      "constant": false,
      "inputs": [],
      "name": "closeSession",
      "outputs": [],
      "payable": false,
      "stateMutability": "nonpayable",
      "type": "function"
    },
    {
      "constant": false,
      "inputs": [],
      "name": "stopSession",
      "outputs": [],
      "payable": false,
      "stateMutability": "nonpayable",
      "type": "function"
    },
    {
      "constant": false,
      "inputs": [
        {
          "name": "_amount",
          "type": "uint256"
        }
      ],
      "name": "priceProduct",
      "outputs": [],
      "payable": false,
      "stateMutability": "nonpayable",
      "type": "function"
    },
    {
      "constant": false,
      "inputs": [],
      "name": "calculateFinalPrice",
      "outputs": [],
      "payable": false,
      "stateMutability": "nonpayable",
      "type": "function"
    },
    {
      "constant": false,
      "inputs": [
        {
          "name": "_name",
          "type": "string"
        },
        {
          "name": "_description",
          "type": "string"
        }
      ],
      "name": "updateProduct",
      "outputs": [],
      "payable": false,
      "stateMutability": "nonpayable",
      "type": "function"
    }
  ],
  "bytecode": "0x60806040523480156200001157600080fd5b5060405162001e0d38038062001e0d83398101806040528101908080519060200190929190805182019291906020018051820192919060200180518201929190505050836000806101000a81548173ffffffffffffffffffffffffffffffffffffffff021916908373ffffffffffffffffffffffffffffffffffffffff16021790555083600160006101000a81548173ffffffffffffffffffffffffffffffffffffffff021916908373ffffffffffffffffffffffffffffffffffffffff160217905550600160009054906101000a900473ffffffffffffffffffffffffffffffffffffffff1673ffffffffffffffffffffffffffffffffffffffff1663f851a4406040518163ffffffff167c0100000000000000000000000000000000000000000000000000000000028152600401602060405180830381600087803b1580156200015c57600080fd5b505af115801562000171573d6000803e3d6000fd5b505050506040513d60208110156200018857600080fd5b8101908080519060200190929190505050600260006101000a81548173ffffffffffffffffffffffffffffffffffffffff021916908373ffffffffffffffffffffffffffffffffffffffff1602179055506000600260146101000a81548160ff02191690836004811115620001f957fe5b02179055508260059080519060200190620002169291906200032a565b5081600690805190602001906200022f9291906200032a565b508060079080519060200190620002489291906200032a565b50600160009054906101000a900473ffffffffffffffffffffffffffffffffffffffff1673ffffffffffffffffffffffffffffffffffffffff1663f390dd86306040518263ffffffff167c0100000000000000000000000000000000000000000000000000000000028152600401808273ffffffffffffffffffffffffffffffffffffffff1673ffffffffffffffffffffffffffffffffffffffff168152602001915050600060405180830381600087803b1580156200030757600080fd5b505af11580156200031c573d6000803e3d6000fd5b5050505050505050620003d9565b828054600181600116156101000203166002900490600052602060002090601f016020900481019282601f106200036d57805160ff19168380011785556200039e565b828001600101855582156200039e579182015b828111156200039d57825182559160200191906001019062000380565b5b509050620003ad9190620003b1565b5090565b620003d691905b80821115620003d2576000816000905550600101620003b8565b5090565b90565b611a2480620003e96000396000f300608060405260043610610112576000357c0100000000000000000000000000000000000000000000000000000000900463ffffffff16806302d05d3f1461011757806306f4bcbf1461016e57806306fdde03146101855780632a450ba71461021557806346eb54e9146102c45780635e8ce731146102db578063614d85e1146103325780637284e4161461035d57806377127612146103ed5780639caeed631461041a578063a3b9c9e514610453578063b63bc3b4146104c0578063c0eeb5c3146104eb578063c19d93fb14610542578063cbd8c6131461057b578063d270e7ab14610592578063e2342b7f146105e9578063e3635bfd14610614578063efa492de1461063f578063f3ccaac01461066c575b600080fd5b34801561012357600080fd5b5061012c6106fc565b604051808273ffffffffffffffffffffffffffffffffffffffff1673ffffffffffffffffffffffffffffffffffffffff16815260200191505060405180910390f35b34801561017a57600080fd5b50610183610722565b005b34801561019157600080fd5b5061019a6107d9565b6040518080602001828103825283818151815260200191508051906020019080838360005b838110156101da5780820151818401526020810190506101bf565b50505050905090810190601f1680156102075780820380516001836020036101000a031916815260200191505b509250505060405180910390f35b34801561022157600080fd5b506102c2600480360381019080803590602001908201803590602001908080601f0160208091040260200160405190810160405280939291908181526020018383808284378201915050505050509192919290803590602001908201803590602001908080601f0160208091040260200160405190810160405280939291908181526020018383808284378201915050505050509192919290505050610877565b005b3480156102d057600080fd5b506102d9610905565b005b3480156102e757600080fd5b5061031c600480360381019080803573ffffffffffffffffffffffffffffffffffffffff16906020019092919050505061109e565b6040518082815260200191505060405180910390f35b34801561033e57600080fd5b506103476110b6565b6040518082815260200191505060405180910390f35b34801561036957600080fd5b506103726110bc565b6040518080602001828103825283818151815260200191508051906020019080838360005b838110156103b2578082015181840152602081019050610397565b50505050905090810190601f1680156103df5780820380516001836020036101000a031916815260200191505b509250505060405180910390f35b3480156103f957600080fd5b506104186004803603810190808035906020019092919050505061115a565b005b34801561042657600080fd5b5061042f6112e2565b6040518082600481111561043f57fe5b60ff16815260200191505060405180910390f35b34801561045f57600080fd5b5061047e600480360381019080803590602001909291905050506112f5565b604051808273ffffffffffffffffffffffffffffffffffffffff1673ffffffffffffffffffffffffffffffffffffffff16815260200191505060405180910390f35b3480156104cc57600080fd5b506104d5611333565b6040518082815260200191505060405180910390f35b3480156104f757600080fd5b5061052c600480360381019080803573ffffffffffffffffffffffffffffffffffffffff169060200190929190505050611339565b6040518082815260200191505060405180910390f35b34801561054e57600080fd5b50610557611351565b6040518082600481111561056757fe5b60ff16815260200191505060405180910390f35b34801561058757600080fd5b50610590611364565b005b34801561059e57600080fd5b506105a76114b3565b604051808273ffffffffffffffffffffffffffffffffffffffff1673ffffffffffffffffffffffffffffffffffffffff16815260200191505060405180910390f35b3480156105f557600080fd5b506105fe6114d8565b6040518082815260200191505060405180910390f35b34801561062057600080fd5b506106296114de565b6040518082815260200191505060405180910390f35b34801561064b57600080fd5b5061066a600480360381019080803590602001909291905050506114e4565b005b34801561067857600080fd5b506106816118b5565b6040518080602001828103825283818151815260200191508051906020019080838360005b838110156106c15780820151818401526020810190506106a6565b50505050905090810190601f1680156106ee5780820380516001836020036101000a031916815260200191505b509250505060405180910390f35b600260009054906101000a900473ffffffffffffffffffffffffffffffffffffffff1681565b600260009054906101000a900473ffffffffffffffffffffffffffffffffffffffff1673ffffffffffffffffffffffffffffffffffffffff163373ffffffffffffffffffffffffffffffffffffffff1614151561077e57600080fd5b600180600481111561078c57fe5b600260149054906101000a900460ff1660048111156107a757fe5b1415156107b357600080fd5b60028060146101000a81548160ff021916908360048111156107d157fe5b021790555050565b60058054600181600116156101000203166002900480601f01602080910402602001604051908101604052809291908181526020018280546001816001161561010002031660029004801561086f5780601f106108445761010080835404028352916020019161086f565b820191906000526020600020905b81548152906001019060200180831161085257829003601f168201915b505050505081565b600260009054906101000a900473ffffffffffffffffffffffffffffffffffffffff1673ffffffffffffffffffffffffffffffffffffffff163373ffffffffffffffffffffffffffffffffffffffff161415156108d357600080fd5b81600590805190602001906108e9929190611953565b508060069080519060200190610900929190611953565b505050565b6000806000806000806000806000600260009054906101000a900473ffffffffffffffffffffffffffffffffffffffff1673ffffffffffffffffffffffffffffffffffffffff163373ffffffffffffffffffffffffffffffffffffffff1614151561096f57600080fd5b600280600481111561097d57fe5b600260149054906101000a900460ff16600481111561099857fe5b1415156109a457600080fd5b60009950600098505b600c54891015610afc576008898154811015156109c657fe5b9060005260206000200160009054906101000a900473ffffffffffffffffffffffffffffffffffffffff169750600160009054906101000a900473ffffffffffffffffffffffffffffffffffffffff1673ffffffffffffffffffffffffffffffffffffffff1663a33a08b9896040518263ffffffff167c0100000000000000000000000000000000000000000000000000000000028152600401808273ffffffffffffffffffffffffffffffffffffffff1673ffffffffffffffffffffffffffffffffffffffff168152602001915050602060405180830381600087803b158015610ab057600080fd5b505af1158015610ac4573d6000803e3d6000fd5b505050506040513d6020811015610ada57600080fd5b81019080805190602001909291905050508a01995088806001019950506109ad565b600096505b600c54871015610ca057600887815481101515610b1a57fe5b9060005260206000200160009054906101000a900473ffffffffffffffffffffffffffffffffffffffff169550600160009054906101000a900473ffffffffffffffffffffffffffffffffffffffff1673ffffffffffffffffffffffffffffffffffffffff1663a33a08b9876040518263ffffffff167c0100000000000000000000000000000000000000000000000000000000028152600401808273ffffffffffffffffffffffffffffffffffffffff1673ffffffffffffffffffffffffffffffffffffffff168152602001915050602060405180830381600087803b158015610c0457600080fd5b505af1158015610c18573d6000803e3d6000fd5b505050506040513d6020811015610c2e57600080fd5b810190808051906020019092919050505061271003600960008873ffffffffffffffffffffffffffffffffffffffff1673ffffffffffffffffffffffffffffffffffffffff1681526020019081526020016000205402600b600082825401925050819055508680600101975050610b01565b89600c5461271002036064600b5402811515610cb857fe5b04600b81905550600094505b600c5485101561106e5760009350600885815481101515610ce157fe5b9060005260206000200160009054906101000a900473ffffffffffffffffffffffffffffffffffffffff169250600960008473ffffffffffffffffffffffffffffffffffffffff1673ffffffffffffffffffffffffffffffffffffffff16815260200190815260200160002054606402600b54101515610dac576064600960008573ffffffffffffffffffffffffffffffffffffffff1673ffffffffffffffffffffffffffffffffffffffff16815260200190815260200160002054606402600b5403029350610df9565b6064600b54600960008673ffffffffffffffffffffffffffffffffffffffff1673ffffffffffffffffffffffffffffffffffffffff16815260200190815260200160002054606402030293505b83606402600b54600c54600160009054906101000a900473ffffffffffffffffffffffffffffffffffffffff1673ffffffffffffffffffffffffffffffffffffffff1663a33a08b9876040518263ffffffff167c0100000000000000000000000000000000000000000000000000000000028152600401808273ffffffffffffffffffffffffffffffffffffffff1673ffffffffffffffffffffffffffffffffffffffff168152602001915050602060405180830381600087803b158015610ec057600080fd5b505af1158015610ed4573d6000803e3d6000fd5b505050506040513d6020811015610eea57600080fd5b81019080805190602001909291905050500202019150600b546001600c54010282811515610f1457fe5b04600a60008573ffffffffffffffffffffffffffffffffffffffff1673ffffffffffffffffffffffffffffffffffffffff16815260200190815260200160002081905550600160009054906101000a900473ffffffffffffffffffffffffffffffffffffffff1673ffffffffffffffffffffffffffffffffffffffff166325c1fe5e84306040518363ffffffff167c0100000000000000000000000000000000000000000000000000000000028152600401808373ffffffffffffffffffffffffffffffffffffffff1673ffffffffffffffffffffffffffffffffffffffff1681526020018273ffffffffffffffffffffffffffffffffffffffff1673ffffffffffffffffffffffffffffffffffffffff16815260200192505050600060405180830381600087803b15801561104957600080fd5b505af115801561105d573d6000803e3d6000fd5b505050508480600101955050610cc4565b6003600260146101000a81548160ff0219169083600481111561108d57fe5b021790555050505050505050505050565b60096020528060005260406000206000915090505481565b60045481565b60068054600181600116156101000203166002900480601f0160208091040260200160405190810160405280929190818152602001828054600181600116156101000203166002900480156111525780601f1061112757610100808354040283529160200191611152565b820191906000526020600020905b81548152906001019060200180831161113557829003601f168201915b505050505081565b600260009054906101000a900473ffffffffffffffffffffffffffffffffffffffff1673ffffffffffffffffffffffffffffffffffffffff163373ffffffffffffffffffffffffffffffffffffffff161415156111b657600080fd5b600060048111156111c357fe5b600260149054906101000a900460ff1660048111156111de57fe5b148061120e57506004808111156111f157fe5b600260149054906101000a900460ff16600481111561120c57fe5b145b151561121957600080fd5b6000600481111561122657fe5b600260149054906101000a900460ff16600481111561124157fe5b141561129057600081141561125d576000600481905550611267565b8042016004819055505b6001600260146101000a81548160ff0219169083600481111561128657fe5b02179055506112df565b600260159054906101000a900460ff16600260146101000a81548160ff021916908360048111156112bd57fe5b021790555060035460045411156112de576003546004544201036004819055505b5b50565b600260159054906101000a900460ff1681565b60088181548110151561130457fe5b906000526020600020016000915054906101000a900473ffffffffffffffffffffffffffffffffffffffff1681565b600c5481565b600a6020528060005260406000206000915090505481565b600260149054906101000a900460ff1681565b600260009054906101000a900473ffffffffffffffffffffffffffffffffffffffff1673ffffffffffffffffffffffffffffffffffffffff163373ffffffffffffffffffffffffffffffffffffffff161415156113c057600080fd5b600060048111156113cd57fe5b600260149054906101000a900460ff1660048111156113e857fe5b14806114195750600160048111156113fc57fe5b600260149054906101000a900460ff16600481111561141757fe5b145b8061144957506002600481111561142c57fe5b600260149054906101000a900460ff16600481111561144757fe5b145b151561145457600080fd5b600260149054906101000a900460ff16600260156101000a81548160ff0219169083600481111561148157fe5b02179055506004600260146101000a81548160ff021916908360048111156114a557fe5b021790555042600381905550565b6000809054906101000a900473ffffffffffffffffffffffffffffffffffffffff1681565b60035481565b600b5481565b60018060048111156114f257fe5b600260149054906101000a900460ff16600481111561150d57fe5b14151561151957600080fd5b600160009054906101000a900473ffffffffffffffffffffffffffffffffffffffff1673ffffffffffffffffffffffffffffffffffffffff166385cd0841336040518263ffffffff167c0100000000000000000000000000000000000000000000000000000000028152600401808273ffffffffffffffffffffffffffffffffffffffff1673ffffffffffffffffffffffffffffffffffffffff168152602001915050602060405180830381600087803b1580156115d657600080fd5b505af11580156115ea573d6000803e3d6000fd5b505050506040513d602081101561160057600080fd5b810190808051906020019092919050505073ffffffffffffffffffffffffffffffffffffffff163373ffffffffffffffffffffffffffffffffffffffff1614151561164a57600080fd5b60008211151561165957600080fd5b600060045411801561166d57506004544210155b1561169a5760028060146101000a81548160ff0219169083600481111561169057fe5b02179055506118b1565b6000600960003373ffffffffffffffffffffffffffffffffffffffff1673ffffffffffffffffffffffffffffffffffffffff16815260200190815260200160002054111561172b5781600960003373ffffffffffffffffffffffffffffffffffffffff1673ffffffffffffffffffffffffffffffffffffffff168152602001908152602001600020819055506118b0565b81600960003373ffffffffffffffffffffffffffffffffffffffff1673ffffffffffffffffffffffffffffffffffffffff1681526020019081526020016000208190555060083390806001815401808255809150509060018203906000526020600020016000909192909190916101000a81548173ffffffffffffffffffffffffffffffffffffffff021916908373ffffffffffffffffffffffffffffffffffffffff160217905550600c81905550600160009054906101000a900473ffffffffffffffffffffffffffffffffffffffff1673ffffffffffffffffffffffffffffffffffffffff1663ef8779ed336040518263ffffffff167c0100000000000000000000000000000000000000000000000000000000028152600401808273ffffffffffffffffffffffffffffffffffffffff1673ffffffffffffffffffffffffffffffffffffffff168152602001915050600060405180830381600087803b15801561189757600080fd5b505af11580156118ab573d6000803e3d6000fd5b505050505b5b5050565b60078054600181600116156101000203166002900480601f01602080910402602001604051908101604052809291908181526020018280546001816001161561010002031660029004801561194b5780601f106119205761010080835404028352916020019161194b565b820191906000526020600020905b81548152906001019060200180831161192e57829003601f168201915b505050505081565b828054600181600116156101000203166002900490600052602060002090601f016020900481019282601f1061199457805160ff19168380011785556119c2565b828001600101855582156119c2579182015b828111156119c15782518255916020019190600101906119a6565b5b5090506119cf91906119d3565b5090565b6119f591905b808211156119f15760008160009055506001016119d9565b5090565b905600a165627a7a723058201cb2c449a66bd45b560560cd25d015935b3e012a0a63410823ae00fb44cbe0070029",
  "source": "pragma solidity ^0.4.17;\n\n// // Interface of Main contract to call from Session contract\n// contract Main {\n//     address public admin;\n//     function addSession(address session) public ;\n//     function increNumSessionOfParticipant(address _address) public ;\n//     function getDeviation(address _address) public view returns(uint) ;\n//     function setDeviation(address _address,uint _devi) public;\n//     function getAccountOfParticipant(address _address) public view returns(address);\n// }\nimport \"./Main.sol\";\n\ncontract Session {\n    // Variable to hold Main Contract Address when create new Session Contract\n    address public mainContract;\n    // Variable to hold Main Contract instance to call functions from Main\n    Main MainContract;\n    address public creator;\n     enum State {CREATED,ONGOING,CLOSED,FINSHED,STOPPED}\n    State public state;\n    State public stateBefore;\n    uint public timeStop;\n    uint public timeOut;\n    string public name;\n    string public description;\n    string public image;\n    address[] public iParticipants;\n    mapping(address => uint) public pricings;\n    mapping(address => uint) public deviations;\n    uint public proposedPrice;\n    uint public nParticipants;\n    function Session(address _mainContract,string _name,string _description,string _image) public{\n        // Get Main Contract instance\n        mainContract = _mainContract;\n        MainContract = Main(_mainContract);\n        // TODO: Init Session contract\n        creator = MainContract.admin();\n        state = State.CREATED;\n        name = _name;\n        description = _description;\n        image = _image;\n        // Call Main Contract function to link current contract.\n        MainContract.addSession(address(this));\n    }\n\n    // modifier validState\n    modifier validState(State _state){\n        require(state == _state);\n        _;\n    }\n    // modifier only admin can do action\n    modifier onlyAdmin(){\n        require(msg.sender == creator);\n        _;\n    }\n\n    // modifier to check participants register or not\n    modifier validRegister(){\n        //require(msg.sender == MainContract.getAccountOfParticipant(msg.sender));\n        require(msg.sender == MainContract.getAccountOfParticipant(msg.sender));\n        _;\n    }\n    // function for admin start Session\n    function startSession(uint _timeOut) public onlyAdmin{\n        require(state == State.CREATED || state == State.STOPPED);\n        if(state == State.CREATED){\n            if(_timeOut == 0){\n                timeOut = 0;\n            }else{\n                timeOut = now + _timeOut;\n            }\n            state = State.ONGOING;\n        }else{\n            state = stateBefore;\n            if(timeOut > timeStop){\n                timeOut = now + timeOut - timeStop;\n            }\n        }\n    }\n    function closeSession() public onlyAdmin validState(State.ONGOING){\n        state = State.CLOSED;\n    }\n    //stop function to halt session a moment\n    function stopSession() public onlyAdmin {\n        require(state == State.CREATED || state == State.ONGOING || state == State.CLOSED);\n        stateBefore = state;\n        state = State.STOPPED;\n        timeStop = now;\n    }\n    //function for participant price the product\n    function priceProduct(uint _amount) public validState(State.ONGOING) validRegister{\n        require(_amount > 0);\n        if(timeOut > 0 && now >= timeOut){\n            state = State.CLOSED;\n        }else{\n            if(pricings[msg.sender] > 0){\n                pricings[msg.sender] = _amount;\n            }else{\n                pricings[msg.sender] = _amount;\n                nParticipants = iParticipants.push(msg.sender);\n                MainContract.increNumSessionOfParticipant(msg.sender);\n            }\n        }\n    }\n\n    //function to calculate proposed price and final price\n    function calculateFinalPrice() public onlyAdmin validState(State.CLOSED){\n        uint totalDeviation = 0;\n        // calculate total Deviatin of all participant in a Session\n        for(uint i = 0; i < nParticipants; i++){\n            address tempPar = iParticipants[i];\n            totalDeviation += MainContract.getDeviation(tempPar);\n        }\n        // caculate proposedPrice\n        for(uint j = 0; j < nParticipants; j++){\n            address _address = iParticipants[j];\n            proposedPrice += pricings[_address]*(10000 - MainContract.getDeviation(_address));\n        }\n        proposedPrice = proposedPrice*100/(10000*nParticipants - totalDeviation);\n        // update Deviation for each participant\n        for(uint k = 0;k < nParticipants; k++){\n            uint deviationNew = 0;\n            address p = iParticipants[k];\n            if(proposedPrice >= 100*pricings[p]){\n                deviationNew = (proposedPrice - 100*pricings[p])*100;\n            }else{\n                deviationNew = (100*pricings[p] - proposedPrice)*100;\n            }\n            uint genDevi = (MainContract.getDeviation(p)*nParticipants*proposedPrice + 100*deviationNew);\n            deviations[p] = genDevi/((nParticipants + 1)*proposedPrice);\n            MainContract.setDeviation(p,address(this));\n        }\n        state = State.FINSHED;\n    }\n\n    function updateProduct(string _name,string _description) public onlyAdmin{\n        name = _name;\n        description = _description;\n    }\n\n}\n",
  "sourcePath": "C:\\Users\\chunglv6\\Desktop\\project\\FunixPricingChain\\FunixPricingChain\\truffle\\contracts\\Session.sol",
  "compiler": {
    "name": "solc",
    "version": "0.4.26+commit.4563c3fc.Emscripten.clang"
  },
  "schemaVersion": "3.0.20",
  "updatedAt": "2020-01-17T14:21:09.771Z",
  "devdoc": {
    "methods": {}
  },
  "userdoc": {
    "methods": {}
  }
}