{
  "contractName": "Session",
  "abi": [
    {
      "constant": true,
      "inputs": [],
      "name": "creator",
      "outputs": [
        {
          "name": "",
          "type": "address"
        }
      ],
      "payable": false,
      "stateMutability": "view",
      "type": "function"
    },
    {
      "constant": true,
      "inputs": [],
      "name": "name",
      "outputs": [
        {
          "name": "",
          "type": "string"
        }
      ],
      "payable": false,
      "stateMutability": "view",
      "type": "function"
    },
    {
      "constant": true,
      "inputs": [
        {
          "name": "",
          "type": "address"
        }
      ],
      "name": "pricings",
      "outputs": [
        {
          "name": "",
          "type": "uint256"
        }
      ],
      "payable": false,
      "stateMutability": "view",
      "type": "function"
    },
    {
      "constant": true,
      "inputs": [],
      "name": "timeOut",
      "outputs": [
        {
          "name": "",
          "type": "uint256"
        }
      ],
      "payable": false,
      "stateMutability": "view",
      "type": "function"
    },
    {
      "constant": true,
      "inputs": [],
      "name": "description",
      "outputs": [
        {
          "name": "",
          "type": "string"
        }
      ],
      "payable": false,
      "stateMutability": "view",
      "type": "function"
    },
    {
      "constant": true,
      "inputs": [],
      "name": "stateBefore",
      "outputs": [
        {
          "name": "",
          "type": "uint8"
        }
      ],
      "payable": false,
      "stateMutability": "view",
      "type": "function"
    },
    {
      "constant": true,
      "inputs": [
        {
          "name": "",
          "type": "uint256"
        }
      ],
      "name": "iParticipants",
      "outputs": [
        {
          "name": "",
          "type": "address"
        }
      ],
      "payable": false,
      "stateMutability": "view",
      "type": "function"
    },
    {
      "constant": true,
      "inputs": [],
      "name": "nParticipants",
      "outputs": [
        {
          "name": "",
          "type": "uint256"
        }
      ],
      "payable": false,
      "stateMutability": "view",
      "type": "function"
    },
    {
      "constant": true,
      "inputs": [],
      "name": "state",
      "outputs": [
        {
          "name": "",
          "type": "uint8"
        }
      ],
      "payable": false,
      "stateMutability": "view",
      "type": "function"
    },
    {
      "constant": true,
      "inputs": [],
      "name": "mainContract",
      "outputs": [
        {
          "name": "",
          "type": "address"
        }
      ],
      "payable": false,
      "stateMutability": "view",
      "type": "function"
    },
    {
      "constant": true,
      "inputs": [],
      "name": "timeStop",
      "outputs": [
        {
          "name": "",
          "type": "uint256"
        }
      ],
      "payable": false,
      "stateMutability": "view",
      "type": "function"
    },
    {
      "constant": true,
      "inputs": [],
      "name": "proposedPrice",
      "outputs": [
        {
          "name": "",
          "type": "uint256"
        }
      ],
      "payable": false,
      "stateMutability": "view",
      "type": "function"
    },
    {
      "constant": true,
      "inputs": [],
      "name": "image",
      "outputs": [
        {
          "name": "",
          "type": "string"
        }
      ],
      "payable": false,
      "stateMutability": "view",
      "type": "function"
    },
    {
      "inputs": [
        {
          "name": "_mainContract",
          "type": "address"
        },
        {
          "name": "_name",
          "type": "string"
        },
        {
          "name": "_description",
          "type": "string"
        },
        {
          "name": "_image",
          "type": "string"
        }
      ],
      "payable": false,
      "stateMutability": "nonpayable",
      "type": "constructor"
    },
    {
      "constant": false,
      "inputs": [
        {
          "name": "_timeOut",
          "type": "uint256"
        }
      ],
      "name": "startSession",
      "outputs": [],
      "payable": false,
      "stateMutability": "nonpayable",
      "type": "function"
    },
    {
      "constant": false,
      "inputs": [],
      "name": "closeSession",
      "outputs": [],
      "payable": false,
      "stateMutability": "nonpayable",
      "type": "function"
    },
    {
      "constant": false,
      "inputs": [],
      "name": "stopSession",
      "outputs": [],
      "payable": false,
      "stateMutability": "nonpayable",
      "type": "function"
    },
    {
      "constant": false,
      "inputs": [
        {
          "name": "_amount",
          "type": "uint256"
        }
      ],
      "name": "priceProduct",
      "outputs": [],
      "payable": false,
      "stateMutability": "nonpayable",
      "type": "function"
    },
    {
      "constant": false,
      "inputs": [],
      "name": "calculateFinalPrice",
      "outputs": [],
      "payable": false,
      "stateMutability": "nonpayable",
      "type": "function"
    }
  ],
  "bytecode": "0x60806040523480156200001157600080fd5b50604051620019653803806200196583398101806040528101908080519060200190929190805182019291906020018051820192919060200180518201929190505050836000806101000a81548173ffffffffffffffffffffffffffffffffffffffff021916908373ffffffffffffffffffffffffffffffffffffffff16021790555083600160006101000a81548173ffffffffffffffffffffffffffffffffffffffff021916908373ffffffffffffffffffffffffffffffffffffffff160217905550600160009054906101000a900473ffffffffffffffffffffffffffffffffffffffff1673ffffffffffffffffffffffffffffffffffffffff1663f851a4406040518163ffffffff167c0100000000000000000000000000000000000000000000000000000000028152600401602060405180830381600087803b1580156200015c57600080fd5b505af115801562000171573d6000803e3d6000fd5b505050506040513d60208110156200018857600080fd5b8101908080519060200190929190505050600260006101000a81548173ffffffffffffffffffffffffffffffffffffffff021916908373ffffffffffffffffffffffffffffffffffffffff1602179055506000600260146101000a81548160ff02191690836004811115620001f957fe5b02179055508260059080519060200190620002169291906200032a565b5081600690805190602001906200022f9291906200032a565b508060079080519060200190620002489291906200032a565b50600160009054906101000a900473ffffffffffffffffffffffffffffffffffffffff1673ffffffffffffffffffffffffffffffffffffffff1663f390dd86306040518263ffffffff167c0100000000000000000000000000000000000000000000000000000000028152600401808273ffffffffffffffffffffffffffffffffffffffff1673ffffffffffffffffffffffffffffffffffffffff168152602001915050600060405180830381600087803b1580156200030757600080fd5b505af11580156200031c573d6000803e3d6000fd5b5050505050505050620003d9565b828054600181600116156101000203166002900490600052602060002090601f016020900481019282601f106200036d57805160ff19168380011785556200039e565b828001600101855582156200039e579182015b828111156200039d57825182559160200191906001019062000380565b5b509050620003ad9190620003b1565b5090565b620003d691905b80821115620003d2576000816000905550600101620003b8565b5090565b90565b61157c80620003e96000396000f3006080604052600436106100fc576000357c0100000000000000000000000000000000000000000000000000000000900463ffffffff16806302d05d3f1461010157806306f4bcbf1461015857806306fdde031461016f57806346eb54e9146101ff5780635e8ce73114610216578063614d85e11461026d5780637284e4161461029857806377127612146103285780639caeed6314610355578063a3b9c9e51461038e578063b63bc3b4146103fb578063c19d93fb14610426578063cbd8c6131461045f578063d270e7ab14610476578063e2342b7f146104cd578063e3635bfd146104f8578063efa492de14610523578063f3ccaac014610550575b600080fd5b34801561010d57600080fd5b506101166105e0565b604051808273ffffffffffffffffffffffffffffffffffffffff1673ffffffffffffffffffffffffffffffffffffffff16815260200191505060405180910390f35b34801561016457600080fd5b5061016d610606565b005b34801561017b57600080fd5b506101846106bd565b6040518080602001828103825283818151815260200191508051906020019080838360005b838110156101c45780820151818401526020810190506101a9565b50505050905090810190601f1680156101f15780820380516001836020036101000a031916815260200191505b509250505060405180910390f35b34801561020b57600080fd5b5061021461075b565b005b34801561022257600080fd5b50610257600480360381019080803573ffffffffffffffffffffffffffffffffffffffff169060200190929190505050610e87565b6040518082815260200191505060405180910390f35b34801561027957600080fd5b50610282610e9f565b6040518082815260200191505060405180910390f35b3480156102a457600080fd5b506102ad610ea5565b6040518080602001828103825283818151815260200191508051906020019080838360005b838110156102ed5780820151818401526020810190506102d2565b50505050905090810190601f16801561031a5780820380516001836020036101000a031916815260200191505b509250505060405180910390f35b34801561033457600080fd5b5061035360048036038101908080359060200190929190505050610f43565b005b34801561036157600080fd5b5061036a6110cb565b6040518082600481111561037a57fe5b60ff16815260200191505060405180910390f35b34801561039a57600080fd5b506103b9600480360381019080803590602001909291905050506110de565b604051808273ffffffffffffffffffffffffffffffffffffffff1673ffffffffffffffffffffffffffffffffffffffff16815260200191505060405180910390f35b34801561040757600080fd5b5061041061111c565b6040518082815260200191505060405180910390f35b34801561043257600080fd5b5061043b611122565b6040518082600481111561044b57fe5b60ff16815260200191505060405180910390f35b34801561046b57600080fd5b50610474611135565b005b34801561048257600080fd5b5061048b6111f0565b604051808273ffffffffffffffffffffffffffffffffffffffff1673ffffffffffffffffffffffffffffffffffffffff16815260200191505060405180910390f35b3480156104d957600080fd5b506104e2611215565b6040518082815260200191505060405180910390f35b34801561050457600080fd5b5061050d61121b565b6040518082815260200191505060405180910390f35b34801561052f57600080fd5b5061054e60048036038101908080359060200190929190505050611221565b005b34801561055c57600080fd5b506105656114b2565b6040518080602001828103825283818151815260200191508051906020019080838360005b838110156105a557808201518184015260208101905061058a565b50505050905090810190601f1680156105d25780820380516001836020036101000a031916815260200191505b509250505060405180910390f35b600260009054906101000a900473ffffffffffffffffffffffffffffffffffffffff1681565b600260009054906101000a900473ffffffffffffffffffffffffffffffffffffffff1673ffffffffffffffffffffffffffffffffffffffff163373ffffffffffffffffffffffffffffffffffffffff1614151561066257600080fd5b600180600481111561067057fe5b600260149054906101000a900460ff16600481111561068b57fe5b14151561069757600080fd5b60028060146101000a81548160ff021916908360048111156106b557fe5b021790555050565b60058054600181600116156101000203166002900480601f0160208091040260200160405190810160405280929190818152602001828054600181600116156101000203166002900480156107535780601f1061072857610100808354040283529160200191610753565b820191906000526020600020905b81548152906001019060200180831161073657829003601f168201915b505050505081565b6000806000806000806000806000600260009054906101000a900473ffffffffffffffffffffffffffffffffffffffff1673ffffffffffffffffffffffffffffffffffffffff163373ffffffffffffffffffffffffffffffffffffffff161415156107c557600080fd5b60028060048111156107d357fe5b600260149054906101000a900460ff1660048111156107ee57fe5b1415156107fa57600080fd5b60009950600098505b600b548910156109525760088981548110151561081c57fe5b9060005260206000200160009054906101000a900473ffffffffffffffffffffffffffffffffffffffff169750600160009054906101000a900473ffffffffffffffffffffffffffffffffffffffff1673ffffffffffffffffffffffffffffffffffffffff1663a33a08b9896040518263ffffffff167c0100000000000000000000000000000000000000000000000000000000028152600401808273ffffffffffffffffffffffffffffffffffffffff1673ffffffffffffffffffffffffffffffffffffffff168152602001915050602060405180830381600087803b15801561090657600080fd5b505af115801561091a573d6000803e3d6000fd5b505050506040513d602081101561093057600080fd5b81019080805190602001909291905050508a0199508880600101995050610803565b600096505b600b54871015610af65760088781548110151561097057fe5b9060005260206000200160009054906101000a900473ffffffffffffffffffffffffffffffffffffffff169550600160009054906101000a900473ffffffffffffffffffffffffffffffffffffffff1673ffffffffffffffffffffffffffffffffffffffff1663a33a08b9876040518263ffffffff167c0100000000000000000000000000000000000000000000000000000000028152600401808273ffffffffffffffffffffffffffffffffffffffff1673ffffffffffffffffffffffffffffffffffffffff168152602001915050602060405180830381600087803b158015610a5a57600080fd5b505af1158015610a6e573d6000803e3d6000fd5b505050506040513d6020811015610a8457600080fd5b810190808051906020019092919050505061271003600960008873ffffffffffffffffffffffffffffffffffffffff1673ffffffffffffffffffffffffffffffffffffffff1681526020019081526020016000205402600a600082825401925050819055508680600101975050610957565b89600b5461271002036064600a5402811515610b0e57fe5b04600a81905550600094505b600b54851015610e575760009350600885815481101515610b3757fe5b9060005260206000200160009054906101000a900473ffffffffffffffffffffffffffffffffffffffff169250600960008473ffffffffffffffffffffffffffffffffffffffff1673ffffffffffffffffffffffffffffffffffffffff16815260200190815260200160002054606402600a54101515610c02576064600960008573ffffffffffffffffffffffffffffffffffffffff1673ffffffffffffffffffffffffffffffffffffffff16815260200190815260200160002054606402600a5403029350610c4f565b6064600a54600960008673ffffffffffffffffffffffffffffffffffffffff1673ffffffffffffffffffffffffffffffffffffffff16815260200190815260200160002054606402030293505b83606402600a54600b54600160009054906101000a900473ffffffffffffffffffffffffffffffffffffffff1673ffffffffffffffffffffffffffffffffffffffff1663a33a08b9876040518263ffffffff167c0100000000000000000000000000000000000000000000000000000000028152600401808273ffffffffffffffffffffffffffffffffffffffff1673ffffffffffffffffffffffffffffffffffffffff168152602001915050602060405180830381600087803b158015610d1657600080fd5b505af1158015610d2a573d6000803e3d6000fd5b505050506040513d6020811015610d4057600080fd5b81019080805190602001909291905050500202019150600a546001600b54010282811515610d6a57fe5b049150600160009054906101000a900473ffffffffffffffffffffffffffffffffffffffff1673ffffffffffffffffffffffffffffffffffffffff1663fc3caadf84846040518363ffffffff167c0100000000000000000000000000000000000000000000000000000000028152600401808373ffffffffffffffffffffffffffffffffffffffff1673ffffffffffffffffffffffffffffffffffffffff16815260200182815260200192505050600060405180830381600087803b158015610e3257600080fd5b505af1158015610e46573d6000803e3d6000fd5b505050508480600101955050610b1a565b6003600260146101000a81548160ff02191690836004811115610e7657fe5b021790555050505050505050505050565b60096020528060005260406000206000915090505481565b60045481565b60068054600181600116156101000203166002900480601f016020809104026020016040519081016040528092919081815260200182805460018160011615610100020316600290048015610f3b5780601f10610f1057610100808354040283529160200191610f3b565b820191906000526020600020905b815481529060010190602001808311610f1e57829003601f168201915b505050505081565b600260009054906101000a900473ffffffffffffffffffffffffffffffffffffffff1673ffffffffffffffffffffffffffffffffffffffff163373ffffffffffffffffffffffffffffffffffffffff16141515610f9f57600080fd5b60006004811115610fac57fe5b600260149054906101000a900460ff166004811115610fc757fe5b1480610ff75750600480811115610fda57fe5b600260149054906101000a900460ff166004811115610ff557fe5b145b151561100257600080fd5b6000600481111561100f57fe5b600260149054906101000a900460ff16600481111561102a57fe5b1415611079576000811415611046576000600481905550611050565b8042016004819055505b6001600260146101000a81548160ff0219169083600481111561106f57fe5b02179055506110c8565b600260159054906101000a900460ff16600260146101000a81548160ff021916908360048111156110a657fe5b021790555060035460045411156110c7576003546004544201036004819055505b5b50565b600260159054906101000a900460ff1681565b6008818154811015156110ed57fe5b906000526020600020016000915054906101000a900473ffffffffffffffffffffffffffffffffffffffff1681565b600b5481565b600260149054906101000a900460ff1681565b600260009054906101000a900473ffffffffffffffffffffffffffffffffffffffff1673ffffffffffffffffffffffffffffffffffffffff163373ffffffffffffffffffffffffffffffffffffffff1614151561119157600080fd5b600260149054906101000a900460ff16600260156101000a81548160ff021916908360048111156111be57fe5b02179055506004600260146101000a81548160ff021916908360048111156111e257fe5b021790555042600381905550565b6000809054906101000a900473ffffffffffffffffffffffffffffffffffffffff1681565b60035481565b600a5481565b600180600481111561122f57fe5b600260149054906101000a900460ff16600481111561124a57fe5b14151561125657600080fd5b600060045411801561126a57506004544210155b156112975760028060146101000a81548160ff0219169083600481111561128d57fe5b02179055506114ae565b6000600960003373ffffffffffffffffffffffffffffffffffffffff1673ffffffffffffffffffffffffffffffffffffffff1681526020019081526020016000205411156113285781600960003373ffffffffffffffffffffffffffffffffffffffff1673ffffffffffffffffffffffffffffffffffffffff168152602001908152602001600020819055506114ad565b81600960003373ffffffffffffffffffffffffffffffffffffffff1673ffffffffffffffffffffffffffffffffffffffff1681526020019081526020016000208190555060083390806001815401808255809150509060018203906000526020600020016000909192909190916101000a81548173ffffffffffffffffffffffffffffffffffffffff021916908373ffffffffffffffffffffffffffffffffffffffff160217905550600b81905550600160009054906101000a900473ffffffffffffffffffffffffffffffffffffffff1673ffffffffffffffffffffffffffffffffffffffff1663ef8779ed336040518263ffffffff167c0100000000000000000000000000000000000000000000000000000000028152600401808273ffffffffffffffffffffffffffffffffffffffff1673ffffffffffffffffffffffffffffffffffffffff168152602001915050600060405180830381600087803b15801561149457600080fd5b505af11580156114a8573d6000803e3d6000fd5b505050505b5b5050565b60078054600181600116156101000203166002900480601f0160208091040260200160405190810160405280929190818152602001828054600181600116156101000203166002900480156115485780601f1061151d57610100808354040283529160200191611548565b820191906000526020600020905b81548152906001019060200180831161152b57829003601f168201915b5050505050815600a165627a7a723058202470e7794a8f05175b5f0beda362864551782ab6fd4a219410694fdaad89ce0a0029",
  "source": "pragma solidity ^0.4.17;\n\n// // Interface of Main contract to call from Session contract\n// contract Main {\n//     function addSession(address session) public {}\n//     function increNumSessionOfParticipant(address _address) public {}\n//     function getDeviation(address _address) public {}\n// }\nimport \"./Main.sol\";\n\ncontract Session {\n    // Variable to hold Main Contract Address when create new Session Contract\n    address public mainContract;\n    // Variable to hold Main Contract instance to call functions from Main\n    Main MainContract;\n\n    // TODO: Variables\n    address public creator;\n     enum State {CREATED,ONGOING,CLOSED,FINSHED,STOPPED}\n    State public state;\n    State public stateBefore;\n    uint public timeStop;\n    uint public timeOut;\n    string public name;\n    string public description;\n    string public image;\n    address[] public iParticipants;\n    mapping(address => uint) public pricings;\n    uint public proposedPrice;\n    uint public nParticipants;\n    function Session(address _mainContract,string _name,string _description,string _image) public{\n        // Get Main Contract instance\n        mainContract = _mainContract;\n        MainContract = Main(_mainContract);\n        // TODO: Init Session contract\n        creator = MainContract.admin();\n        state = State.CREATED;\n        name = _name;\n        description = _description;\n        image = _image;\n        // Call Main Contract function to link current contract.\n        MainContract.addSession(address(this));\n    }\n\n    // modifier validState\n    modifier validState(State _state){\n        require(state == _state);\n        _;\n    }\n    // modifier only admin can do action\n    modifier onlyAdmin(){\n        require(msg.sender == creator);\n        _;\n    }\n    // function for admin start Session\n    function startSession(uint _timeOut) public onlyAdmin{\n        require(state == State.CREATED || state == State.STOPPED);\n        if(state == State.CREATED){\n            if(_timeOut == 0){\n                timeOut = 0;\n            }else{\n                timeOut = now + _timeOut;\n            }\n            state = State.ONGOING;\n        }else{\n            state = stateBefore;\n            if(timeOut > timeStop){\n                timeOut = now + timeOut - timeStop;\n            }\n        }\n    }\n    function closeSession() public onlyAdmin validState(State.ONGOING){\n        state = State.CLOSED;\n    }\n    //stop function to halt session a moment\n    function stopSession() public onlyAdmin {\n        stateBefore = state;\n        state = State.STOPPED;   \n        timeStop = now;\n    }\n    //function for participant price the product\n    function priceProduct(uint _amount) public validState(State.ONGOING){\n        if(timeOut > 0 && now >= timeOut){\n            state = State.CLOSED;\n        }else{\n            if(pricings[msg.sender] > 0){\n                pricings[msg.sender] = _amount;\n            }else{\n                pricings[msg.sender] = _amount;\n                nParticipants = iParticipants.push(msg.sender);\n                MainContract.increNumSessionOfParticipant(msg.sender);\n            }\n        }\n    }\n\n    //function to calculate proposed price and final price\n    function calculateFinalPrice() public onlyAdmin validState(State.CLOSED){\n        uint totalDeviation = 0;\n        // calculate total Deviatin of all participant in a Session\n        for(uint i = 0; i < nParticipants; i++){\n            address tempPar = iParticipants[i];\n            totalDeviation += MainContract.getDeviation(tempPar);\n        }\n        // caculate proposedPrice\n        for(uint j = 0; j < nParticipants; j++){\n            address _address = iParticipants[j];\n            proposedPrice += pricings[_address]*(10000 - MainContract.getDeviation(_address));\n        }\n        proposedPrice = proposedPrice*100/(10000*nParticipants - totalDeviation);\n        // update Deviation for each participant\n        for(uint k = 0;k < nParticipants; k++){\n            uint deviationNew = 0;\n            address p = iParticipants[k];\n            if(proposedPrice >= 100*pricings[p]){\n                deviationNew = (proposedPrice - 100*pricings[p])*100;\n            }else{\n                deviationNew = (100*pricings[p] - proposedPrice)*100;\n            }\n            uint genDevi = (MainContract.getDeviation(p)*nParticipants*proposedPrice + 100*deviationNew);\n            genDevi = genDevi/((nParticipants + 1)*proposedPrice);\n            MainContract.setDeviation(p,genDevi);\n        }\n        state = State.FINSHED;\n    }\n}\n",
  "sourcePath": "C:/Users/chunglv6/Desktop/project/FunixPricingChain/FunixPricingChain/truffle/contracts/Session.sol",
  "compiler": {
    "name": "solc",
    "version": "0.4.26+commit.4563c3fc.Emscripten.clang"
  },
  "schemaVersion": "3.0.19",
  "updatedAt": "2019-12-17T18:53:18.083Z",
  "devdoc": {
    "methods": {}
  },
  "userdoc": {
    "methods": {}
  }
}