{
  "contractName": "Session",
  "abi": [
    {
      "constant": true,
      "inputs": [],
      "name": "creator",
      "outputs": [
        {
          "name": "",
          "type": "address"
        }
      ],
      "payable": false,
      "stateMutability": "view",
      "type": "function"
    },
    {
      "constant": true,
      "inputs": [],
      "name": "name",
      "outputs": [
        {
          "name": "",
          "type": "string"
        }
      ],
      "payable": false,
      "stateMutability": "view",
      "type": "function"
    },
    {
      "constant": true,
      "inputs": [
        {
          "name": "",
          "type": "address"
        }
      ],
      "name": "pricings",
      "outputs": [
        {
          "name": "",
          "type": "uint256"
        }
      ],
      "payable": false,
      "stateMutability": "view",
      "type": "function"
    },
    {
      "constant": true,
      "inputs": [],
      "name": "timeOut",
      "outputs": [
        {
          "name": "",
          "type": "uint256"
        }
      ],
      "payable": false,
      "stateMutability": "view",
      "type": "function"
    },
    {
      "constant": true,
      "inputs": [],
      "name": "description",
      "outputs": [
        {
          "name": "",
          "type": "string"
        }
      ],
      "payable": false,
      "stateMutability": "view",
      "type": "function"
    },
    {
      "constant": true,
      "inputs": [],
      "name": "stateBefore",
      "outputs": [
        {
          "name": "",
          "type": "uint8"
        }
      ],
      "payable": false,
      "stateMutability": "view",
      "type": "function"
    },
    {
      "constant": true,
      "inputs": [
        {
          "name": "",
          "type": "uint256"
        }
      ],
      "name": "iParticipants",
      "outputs": [
        {
          "name": "",
          "type": "address"
        }
      ],
      "payable": false,
      "stateMutability": "view",
      "type": "function"
    },
    {
      "constant": true,
      "inputs": [],
      "name": "nParticipants",
      "outputs": [
        {
          "name": "",
          "type": "uint256"
        }
      ],
      "payable": false,
      "stateMutability": "view",
      "type": "function"
    },
    {
      "constant": true,
      "inputs": [],
      "name": "state",
      "outputs": [
        {
          "name": "",
          "type": "uint8"
        }
      ],
      "payable": false,
      "stateMutability": "view",
      "type": "function"
    },
    {
      "constant": true,
      "inputs": [],
      "name": "mainContract",
      "outputs": [
        {
          "name": "",
          "type": "address"
        }
      ],
      "payable": false,
      "stateMutability": "view",
      "type": "function"
    },
    {
      "constant": true,
      "inputs": [],
      "name": "timeStop",
      "outputs": [
        {
          "name": "",
          "type": "uint256"
        }
      ],
      "payable": false,
      "stateMutability": "view",
      "type": "function"
    },
    {
      "constant": true,
      "inputs": [],
      "name": "proposedPrice",
      "outputs": [
        {
          "name": "",
          "type": "uint256"
        }
      ],
      "payable": false,
      "stateMutability": "view",
      "type": "function"
    },
    {
      "constant": true,
      "inputs": [],
      "name": "image",
      "outputs": [
        {
          "name": "",
          "type": "string"
        }
      ],
      "payable": false,
      "stateMutability": "view",
      "type": "function"
    },
    {
      "inputs": [
        {
          "name": "_mainContract",
          "type": "address"
        },
        {
          "name": "_name",
          "type": "string"
        },
        {
          "name": "_description",
          "type": "string"
        },
        {
          "name": "_image",
          "type": "string"
        }
      ],
      "payable": false,
      "stateMutability": "nonpayable",
      "type": "constructor"
    },
    {
      "constant": false,
      "inputs": [
        {
          "name": "_timeOut",
          "type": "uint256"
        }
      ],
      "name": "startSession",
      "outputs": [],
      "payable": false,
      "stateMutability": "nonpayable",
      "type": "function"
    },
    {
      "constant": false,
      "inputs": [],
      "name": "closeSession",
      "outputs": [],
      "payable": false,
      "stateMutability": "nonpayable",
      "type": "function"
    },
    {
      "constant": false,
      "inputs": [],
      "name": "stopSession",
      "outputs": [],
      "payable": false,
      "stateMutability": "nonpayable",
      "type": "function"
    },
    {
      "constant": false,
      "inputs": [
        {
          "name": "_amount",
          "type": "uint256"
        }
      ],
      "name": "priceProduct",
      "outputs": [],
      "payable": false,
      "stateMutability": "nonpayable",
      "type": "function"
    },
    {
      "constant": false,
      "inputs": [],
      "name": "calculateFinalPrice",
      "outputs": [],
      "payable": false,
      "stateMutability": "nonpayable",
      "type": "function"
    },
    {
      "constant": false,
      "inputs": [
        {
          "name": "_name",
          "type": "string"
        },
        {
          "name": "_description",
          "type": "string"
        }
      ],
      "name": "updateProduct",
      "outputs": [],
      "payable": false,
      "stateMutability": "nonpayable",
      "type": "function"
    }
  ],
  "bytecode": "0x60806040523480156200001157600080fd5b5060405162001d1738038062001d1783398101806040528101908080519060200190929190805182019291906020018051820192919060200180518201929190505050836000806101000a81548173ffffffffffffffffffffffffffffffffffffffff021916908373ffffffffffffffffffffffffffffffffffffffff16021790555083600160006101000a81548173ffffffffffffffffffffffffffffffffffffffff021916908373ffffffffffffffffffffffffffffffffffffffff160217905550600160009054906101000a900473ffffffffffffffffffffffffffffffffffffffff1673ffffffffffffffffffffffffffffffffffffffff1663f851a4406040518163ffffffff167c0100000000000000000000000000000000000000000000000000000000028152600401602060405180830381600087803b1580156200015c57600080fd5b505af115801562000171573d6000803e3d6000fd5b505050506040513d60208110156200018857600080fd5b8101908080519060200190929190505050600260006101000a81548173ffffffffffffffffffffffffffffffffffffffff021916908373ffffffffffffffffffffffffffffffffffffffff1602179055506000600260146101000a81548160ff02191690836004811115620001f957fe5b02179055508260059080519060200190620002169291906200032a565b5081600690805190602001906200022f9291906200032a565b508060079080519060200190620002489291906200032a565b50600160009054906101000a900473ffffffffffffffffffffffffffffffffffffffff1673ffffffffffffffffffffffffffffffffffffffff1663f390dd86306040518263ffffffff167c0100000000000000000000000000000000000000000000000000000000028152600401808273ffffffffffffffffffffffffffffffffffffffff1673ffffffffffffffffffffffffffffffffffffffff168152602001915050600060405180830381600087803b1580156200030757600080fd5b505af11580156200031c573d6000803e3d6000fd5b5050505050505050620003d9565b828054600181600116156101000203166002900490600052602060002090601f016020900481019282601f106200036d57805160ff19168380011785556200039e565b828001600101855582156200039e579182015b828111156200039d57825182559160200191906001019062000380565b5b509050620003ad9190620003b1565b5090565b620003d691905b80821115620003d2576000816000905550600101620003b8565b5090565b90565b61192e80620003e96000396000f300608060405260043610610107576000357c0100000000000000000000000000000000000000000000000000000000900463ffffffff16806302d05d3f1461010c57806306f4bcbf1461016357806306fdde031461017a5780632a450ba71461020a57806346eb54e9146102b95780635e8ce731146102d0578063614d85e1146103275780637284e4161461035257806377127612146103e25780639caeed631461040f578063a3b9c9e514610448578063b63bc3b4146104b5578063c19d93fb146104e0578063cbd8c61314610519578063d270e7ab14610530578063e2342b7f14610587578063e3635bfd146105b2578063efa492de146105dd578063f3ccaac01461060a575b600080fd5b34801561011857600080fd5b5061012161069a565b604051808273ffffffffffffffffffffffffffffffffffffffff1673ffffffffffffffffffffffffffffffffffffffff16815260200191505060405180910390f35b34801561016f57600080fd5b506101786106c0565b005b34801561018657600080fd5b5061018f610777565b6040518080602001828103825283818151815260200191508051906020019080838360005b838110156101cf5780820151818401526020810190506101b4565b50505050905090810190601f1680156101fc5780820380516001836020036101000a031916815260200191505b509250505060405180910390f35b34801561021657600080fd5b506102b7600480360381019080803590602001908201803590602001908080601f0160208091040260200160405190810160405280939291908181526020018383808284378201915050505050509192919290803590602001908201803590602001908080601f0160208091040260200160405190810160405280939291908181526020018383808284378201915050505050509192919290505050610815565b005b3480156102c557600080fd5b506102ce6108a3565b005b3480156102dc57600080fd5b50610311600480360381019080803573ffffffffffffffffffffffffffffffffffffffff169060200190929190505050610fcf565b6040518082815260200191505060405180910390f35b34801561033357600080fd5b5061033c610fe7565b6040518082815260200191505060405180910390f35b34801561035e57600080fd5b50610367610fed565b6040518080602001828103825283818151815260200191508051906020019080838360005b838110156103a757808201518184015260208101905061038c565b50505050905090810190601f1680156103d45780820380516001836020036101000a031916815260200191505b509250505060405180910390f35b3480156103ee57600080fd5b5061040d6004803603810190808035906020019092919050505061108b565b005b34801561041b57600080fd5b50610424611213565b6040518082600481111561043457fe5b60ff16815260200191505060405180910390f35b34801561045457600080fd5b5061047360048036038101908080359060200190929190505050611226565b604051808273ffffffffffffffffffffffffffffffffffffffff1673ffffffffffffffffffffffffffffffffffffffff16815260200191505060405180910390f35b3480156104c157600080fd5b506104ca611264565b6040518082815260200191505060405180910390f35b3480156104ec57600080fd5b506104f561126a565b6040518082600481111561050557fe5b60ff16815260200191505060405180910390f35b34801561052557600080fd5b5061052e61127d565b005b34801561053c57600080fd5b506105456113cc565b604051808273ffffffffffffffffffffffffffffffffffffffff1673ffffffffffffffffffffffffffffffffffffffff16815260200191505060405180910390f35b34801561059357600080fd5b5061059c6113f1565b6040518082815260200191505060405180910390f35b3480156105be57600080fd5b506105c76113f7565b6040518082815260200191505060405180910390f35b3480156105e957600080fd5b50610608600480360381019080803590602001909291905050506113fd565b005b34801561061657600080fd5b5061061f6117bf565b6040518080602001828103825283818151815260200191508051906020019080838360005b8381101561065f578082015181840152602081019050610644565b50505050905090810190601f16801561068c5780820380516001836020036101000a031916815260200191505b509250505060405180910390f35b600260009054906101000a900473ffffffffffffffffffffffffffffffffffffffff1681565b600260009054906101000a900473ffffffffffffffffffffffffffffffffffffffff1673ffffffffffffffffffffffffffffffffffffffff163373ffffffffffffffffffffffffffffffffffffffff1614151561071c57600080fd5b600180600481111561072a57fe5b600260149054906101000a900460ff16600481111561074557fe5b14151561075157600080fd5b60028060146101000a81548160ff0219169083600481111561076f57fe5b021790555050565b60058054600181600116156101000203166002900480601f01602080910402602001604051908101604052809291908181526020018280546001816001161561010002031660029004801561080d5780601f106107e25761010080835404028352916020019161080d565b820191906000526020600020905b8154815290600101906020018083116107f057829003601f168201915b505050505081565b600260009054906101000a900473ffffffffffffffffffffffffffffffffffffffff1673ffffffffffffffffffffffffffffffffffffffff163373ffffffffffffffffffffffffffffffffffffffff1614151561087157600080fd5b816005908051906020019061088792919061185d565b50806006908051906020019061089e92919061185d565b505050565b6000806000806000806000806000600260009054906101000a900473ffffffffffffffffffffffffffffffffffffffff1673ffffffffffffffffffffffffffffffffffffffff163373ffffffffffffffffffffffffffffffffffffffff1614151561090d57600080fd5b600280600481111561091b57fe5b600260149054906101000a900460ff16600481111561093657fe5b14151561094257600080fd5b60009950600098505b600b54891015610a9a5760088981548110151561096457fe5b9060005260206000200160009054906101000a900473ffffffffffffffffffffffffffffffffffffffff169750600160009054906101000a900473ffffffffffffffffffffffffffffffffffffffff1673ffffffffffffffffffffffffffffffffffffffff1663a33a08b9896040518263ffffffff167c0100000000000000000000000000000000000000000000000000000000028152600401808273ffffffffffffffffffffffffffffffffffffffff1673ffffffffffffffffffffffffffffffffffffffff168152602001915050602060405180830381600087803b158015610a4e57600080fd5b505af1158015610a62573d6000803e3d6000fd5b505050506040513d6020811015610a7857600080fd5b81019080805190602001909291905050508a019950888060010199505061094b565b600096505b600b54871015610c3e57600887815481101515610ab857fe5b9060005260206000200160009054906101000a900473ffffffffffffffffffffffffffffffffffffffff169550600160009054906101000a900473ffffffffffffffffffffffffffffffffffffffff1673ffffffffffffffffffffffffffffffffffffffff1663a33a08b9876040518263ffffffff167c0100000000000000000000000000000000000000000000000000000000028152600401808273ffffffffffffffffffffffffffffffffffffffff1673ffffffffffffffffffffffffffffffffffffffff168152602001915050602060405180830381600087803b158015610ba257600080fd5b505af1158015610bb6573d6000803e3d6000fd5b505050506040513d6020811015610bcc57600080fd5b810190808051906020019092919050505061271003600960008873ffffffffffffffffffffffffffffffffffffffff1673ffffffffffffffffffffffffffffffffffffffff1681526020019081526020016000205402600a600082825401925050819055508680600101975050610a9f565b89600b5461271002036064600a5402811515610c5657fe5b04600a81905550600094505b600b54851015610f9f5760009350600885815481101515610c7f57fe5b9060005260206000200160009054906101000a900473ffffffffffffffffffffffffffffffffffffffff169250600960008473ffffffffffffffffffffffffffffffffffffffff1673ffffffffffffffffffffffffffffffffffffffff16815260200190815260200160002054606402600a54101515610d4a576064600960008573ffffffffffffffffffffffffffffffffffffffff1673ffffffffffffffffffffffffffffffffffffffff16815260200190815260200160002054606402600a5403029350610d97565b6064600a54600960008673ffffffffffffffffffffffffffffffffffffffff1673ffffffffffffffffffffffffffffffffffffffff16815260200190815260200160002054606402030293505b83606402600a54600b54600160009054906101000a900473ffffffffffffffffffffffffffffffffffffffff1673ffffffffffffffffffffffffffffffffffffffff1663a33a08b9876040518263ffffffff167c0100000000000000000000000000000000000000000000000000000000028152600401808273ffffffffffffffffffffffffffffffffffffffff1673ffffffffffffffffffffffffffffffffffffffff168152602001915050602060405180830381600087803b158015610e5e57600080fd5b505af1158015610e72573d6000803e3d6000fd5b505050506040513d6020811015610e8857600080fd5b81019080805190602001909291905050500202019150600a546001600b54010282811515610eb257fe5b049150600160009054906101000a900473ffffffffffffffffffffffffffffffffffffffff1673ffffffffffffffffffffffffffffffffffffffff1663fc3caadf84846040518363ffffffff167c0100000000000000000000000000000000000000000000000000000000028152600401808373ffffffffffffffffffffffffffffffffffffffff1673ffffffffffffffffffffffffffffffffffffffff16815260200182815260200192505050600060405180830381600087803b158015610f7a57600080fd5b505af1158015610f8e573d6000803e3d6000fd5b505050508480600101955050610c62565b6003600260146101000a81548160ff02191690836004811115610fbe57fe5b021790555050505050505050505050565b60096020528060005260406000206000915090505481565b60045481565b60068054600181600116156101000203166002900480601f0160208091040260200160405190810160405280929190818152602001828054600181600116156101000203166002900480156110835780601f1061105857610100808354040283529160200191611083565b820191906000526020600020905b81548152906001019060200180831161106657829003601f168201915b505050505081565b600260009054906101000a900473ffffffffffffffffffffffffffffffffffffffff1673ffffffffffffffffffffffffffffffffffffffff163373ffffffffffffffffffffffffffffffffffffffff161415156110e757600080fd5b600060048111156110f457fe5b600260149054906101000a900460ff16600481111561110f57fe5b148061113f575060048081111561112257fe5b600260149054906101000a900460ff16600481111561113d57fe5b145b151561114a57600080fd5b6000600481111561115757fe5b600260149054906101000a900460ff16600481111561117257fe5b14156111c157600081141561118e576000600481905550611198565b8042016004819055505b6001600260146101000a81548160ff021916908360048111156111b757fe5b0217905550611210565b600260159054906101000a900460ff16600260146101000a81548160ff021916908360048111156111ee57fe5b0217905550600354600454111561120f576003546004544201036004819055505b5b50565b600260159054906101000a900460ff1681565b60088181548110151561123557fe5b906000526020600020016000915054906101000a900473ffffffffffffffffffffffffffffffffffffffff1681565b600b5481565b600260149054906101000a900460ff1681565b600260009054906101000a900473ffffffffffffffffffffffffffffffffffffffff1673ffffffffffffffffffffffffffffffffffffffff163373ffffffffffffffffffffffffffffffffffffffff161415156112d957600080fd5b600060048111156112e657fe5b600260149054906101000a900460ff16600481111561130157fe5b148061133257506001600481111561131557fe5b600260149054906101000a900460ff16600481111561133057fe5b145b8061136257506002600481111561134557fe5b600260149054906101000a900460ff16600481111561136057fe5b145b151561136d57600080fd5b600260149054906101000a900460ff16600260156101000a81548160ff0219169083600481111561139a57fe5b02179055506004600260146101000a81548160ff021916908360048111156113be57fe5b021790555042600381905550565b6000809054906101000a900473ffffffffffffffffffffffffffffffffffffffff1681565b60035481565b600a5481565b600180600481111561140b57fe5b600260149054906101000a900460ff16600481111561142657fe5b14151561143257600080fd5b600160009054906101000a900473ffffffffffffffffffffffffffffffffffffffff1673ffffffffffffffffffffffffffffffffffffffff166385cd0841336040518263ffffffff167c0100000000000000000000000000000000000000000000000000000000028152600401808273ffffffffffffffffffffffffffffffffffffffff1673ffffffffffffffffffffffffffffffffffffffff168152602001915050602060405180830381600087803b1580156114ef57600080fd5b505af1158015611503573d6000803e3d6000fd5b505050506040513d602081101561151957600080fd5b810190808051906020019092919050505073ffffffffffffffffffffffffffffffffffffffff163373ffffffffffffffffffffffffffffffffffffffff1614151561156357600080fd5b600060045411801561157757506004544210155b156115a45760028060146101000a81548160ff0219169083600481111561159a57fe5b02179055506117bb565b6000600960003373ffffffffffffffffffffffffffffffffffffffff1673ffffffffffffffffffffffffffffffffffffffff1681526020019081526020016000205411156116355781600960003373ffffffffffffffffffffffffffffffffffffffff1673ffffffffffffffffffffffffffffffffffffffff168152602001908152602001600020819055506117ba565b81600960003373ffffffffffffffffffffffffffffffffffffffff1673ffffffffffffffffffffffffffffffffffffffff1681526020019081526020016000208190555060083390806001815401808255809150509060018203906000526020600020016000909192909190916101000a81548173ffffffffffffffffffffffffffffffffffffffff021916908373ffffffffffffffffffffffffffffffffffffffff160217905550600b81905550600160009054906101000a900473ffffffffffffffffffffffffffffffffffffffff1673ffffffffffffffffffffffffffffffffffffffff1663ef8779ed336040518263ffffffff167c0100000000000000000000000000000000000000000000000000000000028152600401808273ffffffffffffffffffffffffffffffffffffffff1673ffffffffffffffffffffffffffffffffffffffff168152602001915050600060405180830381600087803b1580156117a157600080fd5b505af11580156117b5573d6000803e3d6000fd5b505050505b5b5050565b60078054600181600116156101000203166002900480601f0160208091040260200160405190810160405280929190818152602001828054600181600116156101000203166002900480156118555780601f1061182a57610100808354040283529160200191611855565b820191906000526020600020905b81548152906001019060200180831161183857829003601f168201915b505050505081565b828054600181600116156101000203166002900490600052602060002090601f016020900481019282601f1061189e57805160ff19168380011785556118cc565b828001600101855582156118cc579182015b828111156118cb5782518255916020019190600101906118b0565b5b5090506118d991906118dd565b5090565b6118ff91905b808211156118fb5760008160009055506001016118e3565b5090565b905600a165627a7a72305820bb39b46cb2191cf8b116d9c751ef8d18ac8ab7203a33bd939dacf81f2603b07a0029",
  "source": "pragma solidity ^0.4.17;\n\n// // Interface of Main contract to call from Session contract\n// contract Main {\n//     function addSession(address session) public {}\n//     function increNumSessionOfParticipant(address _address) public {}\n//     function getDeviation(address _address) public {}\n// }\nimport \"./Main.sol\";\n\ncontract Session {\n    // Variable to hold Main Contract Address when create new Session Contract\n    address public mainContract;\n    // Variable to hold Main Contract instance to call functions from Main\n    Main MainContract;\n\n    // TODO: Variables\n    address public creator;\n     enum State {CREATED,ONGOING,CLOSED,FINSHED,STOPPED}\n    State public state;\n    State public stateBefore;\n    uint public timeStop;\n    uint public timeOut;\n    string public name;\n    string public description;\n    string public image;\n    address[] public iParticipants;\n    mapping(address => uint) public pricings;\n    uint public proposedPrice;\n    uint public nParticipants;\n    function Session(address _mainContract,string _name,string _description,string _image) public{\n        // Get Main Contract instance\n        mainContract = _mainContract;\n        MainContract = Main(_mainContract);\n        // TODO: Init Session contract\n        creator = MainContract.admin();\n        state = State.CREATED;\n        name = _name;\n        description = _description;\n        image = _image;\n        // Call Main Contract function to link current contract.\n        MainContract.addSession(address(this));\n    }\n\n    // modifier validState\n    modifier validState(State _state){\n        require(state == _state);\n        _;\n    }\n    // modifier only admin can do action\n    modifier onlyAdmin(){\n        require(msg.sender == creator);\n        _;\n    }\n\n    // modifier to check participants register or not\n    modifier validRegister(){\n        //require(msg.sender == MainContract.getAccountOfParticipant(msg.sender));\n        require(msg.sender == MainContract.getAccountOfParticipant(msg.sender));\n        _;\n    }\n    // function for admin start Session\n    function startSession(uint _timeOut) public onlyAdmin{\n        require(state == State.CREATED || state == State.STOPPED);\n        if(state == State.CREATED){\n            if(_timeOut == 0){\n                timeOut = 0;\n            }else{\n                timeOut = now + _timeOut;\n            }\n            state = State.ONGOING;\n        }else{\n            state = stateBefore;\n            if(timeOut > timeStop){\n                timeOut = now + timeOut - timeStop;\n            }\n        }\n    }\n    function closeSession() public onlyAdmin validState(State.ONGOING){\n        state = State.CLOSED;\n    }\n    //stop function to halt session a moment\n    function stopSession() public onlyAdmin {\n        require(state == State.CREATED || state == State.ONGOING || state == State.CLOSED);\n        stateBefore = state;\n        state = State.STOPPED;\n        timeStop = now;\n    }\n    //function for participant price the product\n    function priceProduct(uint _amount) public validState(State.ONGOING) validRegister{\n        if(timeOut > 0 && now >= timeOut){\n            state = State.CLOSED;\n        }else{\n            if(pricings[msg.sender] > 0){\n                pricings[msg.sender] = _amount;\n            }else{\n                pricings[msg.sender] = _amount;\n                nParticipants = iParticipants.push(msg.sender);\n                MainContract.increNumSessionOfParticipant(msg.sender);\n            }\n        }\n    }\n\n    //function to calculate proposed price and final price\n    function calculateFinalPrice() public onlyAdmin validState(State.CLOSED){\n        uint totalDeviation = 0;\n        // calculate total Deviatin of all participant in a Session\n        for(uint i = 0; i < nParticipants; i++){\n            address tempPar = iParticipants[i];\n            totalDeviation += MainContract.getDeviation(tempPar);\n        }\n        // caculate proposedPrice\n        for(uint j = 0; j < nParticipants; j++){\n            address _address = iParticipants[j];\n            proposedPrice += pricings[_address]*(10000 - MainContract.getDeviation(_address));\n        }\n        proposedPrice = proposedPrice*100/(10000*nParticipants - totalDeviation);\n        // update Deviation for each participant\n        for(uint k = 0;k < nParticipants; k++){\n            uint deviationNew = 0;\n            address p = iParticipants[k];\n            if(proposedPrice >= 100*pricings[p]){\n                deviationNew = (proposedPrice - 100*pricings[p])*100;\n            }else{\n                deviationNew = (100*pricings[p] - proposedPrice)*100;\n            }\n            uint genDevi = (MainContract.getDeviation(p)*nParticipants*proposedPrice + 100*deviationNew);\n            genDevi = genDevi/((nParticipants + 1)*proposedPrice);\n            MainContract.setDeviation(p,genDevi);\n        }\n        state = State.FINSHED;\n    }\n\n    function updateProduct(string _name,string _description) public onlyAdmin{\n        name = _name;\n        description = _description;\n    }\n}\n",
  "sourcePath": "C:/Users/chunglv6/Desktop/project/FunixPricingChain/FunixPricingChain/truffle/contracts/Session.sol",
  "compiler": {
    "name": "solc",
    "version": "0.4.26+commit.4563c3fc.Emscripten.clang"
  },
  "schemaVersion": "3.0.20",
  "updatedAt": "2020-01-04T16:04:56.493Z",
  "devdoc": {
    "methods": {}
  },
  "userdoc": {
    "methods": {}
  }
}