{
  "contractName": "Main",
  "abi": [
    {
      "constant": true,
      "inputs": [
        {
          "name": "",
          "type": "address"
        }
      ],
      "name": "participants",
      "outputs": [
        {
          "name": "account",
          "type": "address"
        },
        {
          "name": "fullname",
          "type": "string"
        },
        {
          "name": "email",
          "type": "string"
        },
        {
          "name": "nSessions",
          "type": "uint256"
        },
        {
          "name": "deviation",
          "type": "uint256"
        }
      ],
      "payable": false,
      "stateMutability": "view",
      "type": "function"
    },
    {
      "constant": true,
      "inputs": [],
      "name": "nSessions",
      "outputs": [
        {
          "name": "",
          "type": "uint256"
        }
      ],
      "payable": false,
      "stateMutability": "view",
      "type": "function"
    },
    {
      "constant": true,
      "inputs": [
        {
          "name": "",
          "type": "uint256"
        }
      ],
      "name": "sessions",
      "outputs": [
        {
          "name": "",
          "type": "address"
        }
      ],
      "payable": false,
      "stateMutability": "view",
      "type": "function"
    },
    {
      "constant": true,
      "inputs": [],
      "name": "indexProduct",
      "outputs": [
        {
          "name": "",
          "type": "uint256"
        }
      ],
      "payable": false,
      "stateMutability": "view",
      "type": "function"
    },
    {
      "constant": true,
      "inputs": [
        {
          "name": "",
          "type": "uint256"
        }
      ],
      "name": "iParticipants",
      "outputs": [
        {
          "name": "",
          "type": "address"
        }
      ],
      "payable": false,
      "stateMutability": "view",
      "type": "function"
    },
    {
      "constant": true,
      "inputs": [],
      "name": "nParticipants",
      "outputs": [
        {
          "name": "",
          "type": "uint256"
        }
      ],
      "payable": false,
      "stateMutability": "view",
      "type": "function"
    },
    {
      "constant": true,
      "inputs": [],
      "name": "admin",
      "outputs": [
        {
          "name": "",
          "type": "address"
        }
      ],
      "payable": false,
      "stateMutability": "view",
      "type": "function"
    },
    {
      "inputs": [],
      "payable": false,
      "stateMutability": "nonpayable",
      "type": "constructor"
    },
    {
      "constant": false,
      "inputs": [
        {
          "name": "session",
          "type": "address"
        }
      ],
      "name": "addSession",
      "outputs": [],
      "payable": false,
      "stateMutability": "nonpayable",
      "type": "function"
    },
    {
      "constant": false,
      "inputs": [
        {
          "name": "_name",
          "type": "string"
        },
        {
          "name": "_description",
          "type": "string"
        },
        {
          "name": "_image",
          "type": "string"
        }
      ],
      "name": "initSession",
      "outputs": [],
      "payable": false,
      "stateMutability": "nonpayable",
      "type": "function"
    },
    {
      "constant": false,
      "inputs": [
        {
          "name": "_fullname",
          "type": "string"
        },
        {
          "name": "_email",
          "type": "string"
        }
      ],
      "name": "register",
      "outputs": [],
      "payable": false,
      "stateMutability": "nonpayable",
      "type": "function"
    },
    {
      "constant": false,
      "inputs": [
        {
          "name": "_address",
          "type": "address"
        }
      ],
      "name": "increNumSessionOfParticipant",
      "outputs": [],
      "payable": false,
      "stateMutability": "nonpayable",
      "type": "function"
    },
    {
      "constant": true,
      "inputs": [
        {
          "name": "_address",
          "type": "address"
        }
      ],
      "name": "getDeviation",
      "outputs": [
        {
          "name": "",
          "type": "uint256"
        }
      ],
      "payable": false,
      "stateMutability": "view",
      "type": "function"
    },
    {
      "constant": false,
      "inputs": [
        {
          "name": "_address",
          "type": "address"
        },
        {
          "name": "_devi",
          "type": "uint256"
        }
      ],
      "name": "setDeviation",
      "outputs": [],
      "payable": false,
      "stateMutability": "nonpayable",
      "type": "function"
    }
  ],
  "bytecode": "0x608060405234801561001057600080fd5b50336000806101000a81548173ffffffffffffffffffffffffffffffffffffffff021916908373ffffffffffffffffffffffffffffffffffffffff160217905550612774806100606000396000f300608060405260043610620000d3576000357c0100000000000000000000000000000000000000000000000000000000900463ffffffff16806309e69ede14620000d85780630a31cf26146200024a5780633ffbd47f1462000342578063454eed7d14620003f457806383c4b7a31462000422578063999810e41462000492578063a33a08b914620004c0578063a3b9c9e5146200051a578063b63bc3b4146200058a578063ef8779ed14620005b8578063f390dd8614620005fe578063f851a4401462000644578063fc3caadf146200069e575b600080fd5b348015620000e557600080fd5b506200011c600480360381019080803573ffffffffffffffffffffffffffffffffffffffff169060200190929190505050620006ee565b604051808673ffffffffffffffffffffffffffffffffffffffff1673ffffffffffffffffffffffffffffffffffffffff1681526020018060200180602001858152602001848152602001838103835287818151815260200191508051906020019080838360005b83811015620001a057808201518184015260208101905062000183565b50505050905090810190601f168015620001ce5780820380516001836020036101000a031916815260200191505b50838103825286818151815260200191508051906020019080838360005b8381101562000209578082015181840152602081019050620001ec565b50505050905090810190601f168015620002375780820380516001836020036101000a031916815260200191505b5097505050505050505060405180910390f35b3480156200025757600080fd5b5062000340600480360381019080803590602001908201803590602001908080601f0160208091040260200160405190810160405280939291908181526020018383808284378201915050505050509192919290803590602001908201803590602001908080601f0160208091040260200160405190810160405280939291908181526020018383808284378201915050505050509192919290803590602001908201803590602001908080601f01602080910402602001604051908101604052809392919081815260200183838082843782019150505050505091929192905050506200087c565b005b3480156200034f57600080fd5b50620003f2600480360381019080803590602001908201803590602001908080601f0160208091040260200160405190810160405280939291908181526020018383808284378201915050505050509192919290803590602001908201803590602001908080601f016020809104026020016040519081016040528093929190818152602001838380828437820191505050505050919291929050505062000a8d565b005b3480156200040157600080fd5b506200040c62000d58565b6040518082815260200191505060405180910390f35b3480156200042f57600080fd5b50620004506004803603810190808035906020019092919050505062000d5e565b604051808273ffffffffffffffffffffffffffffffffffffffff1673ffffffffffffffffffffffffffffffffffffffff16815260200191505060405180910390f35b3480156200049f57600080fd5b50620004aa62000d9d565b6040518082815260200191505060405180910390f35b348015620004cd57600080fd5b5062000504600480360381019080803573ffffffffffffffffffffffffffffffffffffffff16906020019092919050505062000da3565b6040518082815260200191505060405180910390f35b3480156200052757600080fd5b50620005486004803603810190808035906020019092919050505062000def565b604051808273ffffffffffffffffffffffffffffffffffffffff1673ffffffffffffffffffffffffffffffffffffffff16815260200191505060405180910390f35b3480156200059757600080fd5b50620005a262000e2e565b6040518082815260200191505060405180910390f35b348015620005c557600080fd5b50620005fc600480360381019080803573ffffffffffffffffffffffffffffffffffffffff16906020019092919050505062000e34565b005b3480156200060b57600080fd5b5062000642600480360381019080803573ffffffffffffffffffffffffffffffffffffffff16906020019092919050505062000e88565b005b3480156200065157600080fd5b506200065c62000ef6565b604051808273ffffffffffffffffffffffffffffffffffffffff1673ffffffffffffffffffffffffffffffffffffffff16815260200191505060405180910390f35b348015620006ab57600080fd5b50620006ec600480360381019080803573ffffffffffffffffffffffffffffffffffffffff1690602001909291908035906020019092919050505062000f1b565b005b60066020528060005260406000206000915090508060000160009054906101000a900473ffffffffffffffffffffffffffffffffffffffff1690806001018054600181600116156101000203166002900480601f016020809104026020016040519081016040528092919081815260200182805460018160011615610100020316600290048015620007c45780601f106200079857610100808354040283529160200191620007c4565b820191906000526020600020905b815481529060010190602001808311620007a657829003601f168201915b505050505090806002018054600181600116156101000203166002900480601f016020809104026020016040519081016040528092919081815260200182805460018160011615610100020316600290048015620008665780601f106200083a5761010080835404028352916020019162000866565b820191906000526020600020905b8154815290600101906020018083116200084857829003601f168201915b5050505050908060030154908060040154905085565b6000809054906101000a900473ffffffffffffffffffffffffffffffffffffffff1673ffffffffffffffffffffffffffffffffffffffff163373ffffffffffffffffffffffffffffffffffffffff16141515620008d857600080fd5b30838383620008e662000f66565b808573ffffffffffffffffffffffffffffffffffffffff1673ffffffffffffffffffffffffffffffffffffffff168152602001806020018060200180602001848103845287818151815260200191508051906020019080838360005b838110156200095f57808201518184015260208101905062000942565b50505050905090810190601f1680156200098d5780820380516001836020036101000a031916815260200191505b50848103835286818151815260200191508051906020019080838360005b83811015620009c8578082015181840152602081019050620009ab565b50505050905090810190601f168015620009f65780820380516001836020036101000a031916815260200191505b50848103825285818151815260200191508051906020019080838360005b8381101562000a3157808201518184015260208101905062000a14565b50505050905090810190601f16801562000a5f5780820380516001836020036101000a031916815260200191505b50975050505050505050604051809103906000f08015801562000a86573d6000803e3d6000fd5b5050505050565b600073ffffffffffffffffffffffffffffffffffffffff16600660003373ffffffffffffffffffffffffffffffffffffffff1673ffffffffffffffffffffffffffffffffffffffff16815260200190815260200160002060000160009054906101000a900473ffffffffffffffffffffffffffffffffffffffff1673ffffffffffffffffffffffffffffffffffffffff16141562000d545733600660003373ffffffffffffffffffffffffffffffffffffffff1673ffffffffffffffffffffffffffffffffffffffff16815260200190815260200160002060000160006101000a81548173ffffffffffffffffffffffffffffffffffffffff021916908373ffffffffffffffffffffffffffffffffffffffff16021790555081600660003373ffffffffffffffffffffffffffffffffffffffff1673ffffffffffffffffffffffffffffffffffffffff168152602001908152602001600020600101908051906020019062000bfe92919062000f77565b5080600660003373ffffffffffffffffffffffffffffffffffffffff1673ffffffffffffffffffffffffffffffffffffffff168152602001908152602001600020600201908051906020019062000c5792919062000f77565b506000600660003373ffffffffffffffffffffffffffffffffffffffff1673ffffffffffffffffffffffffffffffffffffffff168152602001908152602001600020600301819055506000600660003373ffffffffffffffffffffffffffffffffffffffff1673ffffffffffffffffffffffffffffffffffffffff1681526020019081526020016000206004018190555060033390806001815401808255809150509060018203906000526020600020016000909192909190916101000a81548173ffffffffffffffffffffffffffffffffffffffff021916908373ffffffffffffffffffffffffffffffffffffffff1602179055506002819055505b5050565b60015481565b60058181548110151562000d6e57fe5b906000526020600020016000915054906101000a900473ffffffffffffffffffffffffffffffffffffffff1681565b60045481565b6000600660008373ffffffffffffffffffffffffffffffffffffffff1673ffffffffffffffffffffffffffffffffffffffff168152602001908152602001600020600401549050919050565b60038181548110151562000dff57fe5b906000526020600020016000915054906101000a900473ffffffffffffffffffffffffffffffffffffffff1681565b60025481565b6001600660008373ffffffffffffffffffffffffffffffffffffffff1673ffffffffffffffffffffffffffffffffffffffff1681526020019081526020016000206003016000828254019250508190555050565b60058190806001815401808255809150509060018203906000526020600020016000909192909190916101000a81548173ffffffffffffffffffffffffffffffffffffffff021916908373ffffffffffffffffffffffffffffffffffffffff16021790555060018190555050565b6000809054906101000a900473ffffffffffffffffffffffffffffffffffffffff1681565b80600660008473ffffffffffffffffffffffffffffffffffffffff1673ffffffffffffffffffffffffffffffffffffffff168152602001908152602001600020600401819055505050565b604051611722806200102783390190565b828054600181600116156101000203166002900490600052602060002090601f016020900481019282601f1062000fba57805160ff191683800117855562000feb565b8280016001018555821562000feb579182015b8281111562000fea57825182559160200191906001019062000fcd565b5b50905062000ffa919062000ffe565b5090565b6200102391905b808211156200101f57600081600090555060010162001005565b5090565b90560060806040523480156200001157600080fd5b50604051620017223803806200172283398101806040528101908080519060200190929190805182019291906020018051820192919060200180518201929190505050836000806101000a81548173ffffffffffffffffffffffffffffffffffffffff021916908373ffffffffffffffffffffffffffffffffffffffff16021790555083600160006101000a81548173ffffffffffffffffffffffffffffffffffffffff021916908373ffffffffffffffffffffffffffffffffffffffff160217905550600160009054906101000a900473ffffffffffffffffffffffffffffffffffffffff1673ffffffffffffffffffffffffffffffffffffffff1663f851a4406040518163ffffffff167c0100000000000000000000000000000000000000000000000000000000028152600401602060405180830381600087803b1580156200015c57600080fd5b505af115801562000171573d6000803e3d6000fd5b505050506040513d60208110156200018857600080fd5b8101908080519060200190929190505050600260006101000a81548173ffffffffffffffffffffffffffffffffffffffff021916908373ffffffffffffffffffffffffffffffffffffffff1602179055506000600260146101000a81548160ff02191690836002811115620001f957fe5b02179055508260049080519060200190620002169291906200032a565b5081600590805190602001906200022f9291906200032a565b508060069080519060200190620002489291906200032a565b50600160009054906101000a900473ffffffffffffffffffffffffffffffffffffffff1673ffffffffffffffffffffffffffffffffffffffff1663f390dd86306040518263ffffffff167c0100000000000000000000000000000000000000000000000000000000028152600401808273ffffffffffffffffffffffffffffffffffffffff1673ffffffffffffffffffffffffffffffffffffffff168152602001915050600060405180830381600087803b1580156200030757600080fd5b505af11580156200031c573d6000803e3d6000fd5b5050505050505050620003d9565b828054600181600116156101000203166002900490600052602060002090601f016020900481019282601f106200036d57805160ff19168380011785556200039e565b828001600101855582156200039e579182015b828111156200039d57825182559160200191906001019062000380565b5b509050620003ad9190620003b1565b5090565b620003d691905b80821115620003d2576000816000905550600101620003b8565b5090565b90565b61133980620003e96000396000f3006080604052600436106100db576000357c0100000000000000000000000000000000000000000000000000000000900463ffffffff16806302d05d3f146100e057806306f4bcbf1461013757806306fdde031461014e57806346eb54e9146101de5780635e8ce731146101f5578063614d85e11461024c5780637284e416146102775780637712761214610307578063a3b9c9e514610334578063b63bc3b4146103a1578063c19d93fb146103cc578063d270e7ab14610405578063e3635bfd1461045c578063efa492de14610487578063f3ccaac0146104b4575b600080fd5b3480156100ec57600080fd5b506100f5610544565b604051808273ffffffffffffffffffffffffffffffffffffffff1673ffffffffffffffffffffffffffffffffffffffff16815260200191505060405180910390f35b34801561014357600080fd5b5061014c61056a565b005b34801561015a57600080fd5b50610163610621565b6040518080602001828103825283818151815260200191508051906020019080838360005b838110156101a3578082015181840152602081019050610188565b50505050905090810190601f1680156101d05780820380516001836020036101000a031916815260200191505b509250505060405180910390f35b3480156101ea57600080fd5b506101f36106bf565b005b34801561020157600080fd5b50610236600480360381019080803573ffffffffffffffffffffffffffffffffffffffff169060200190929190505050610dc7565b6040518082815260200191505060405180910390f35b34801561025857600080fd5b50610261610ddf565b6040518082815260200191505060405180910390f35b34801561028357600080fd5b5061028c610de5565b6040518080602001828103825283818151815260200191508051906020019080838360005b838110156102cc5780820151818401526020810190506102b1565b50505050905090810190601f1680156102f95780820380516001836020036101000a031916815260200191505b509250505060405180910390f35b34801561031357600080fd5b5061033260048036038101908080359060200190929190505050610e83565b005b34801561034057600080fd5b5061035f60048036038101908080359060200190929190505050610f5c565b604051808273ffffffffffffffffffffffffffffffffffffffff1673ffffffffffffffffffffffffffffffffffffffff16815260200191505060405180910390f35b3480156103ad57600080fd5b506103b6610f9a565b6040518082815260200191505060405180910390f35b3480156103d857600080fd5b506103e1610fa0565b604051808260028111156103f157fe5b60ff16815260200191505060405180910390f35b34801561041157600080fd5b5061041a610fb3565b604051808273ffffffffffffffffffffffffffffffffffffffff1673ffffffffffffffffffffffffffffffffffffffff16815260200191505060405180910390f35b34801561046857600080fd5b50610471610fd8565b6040518082815260200191505060405180910390f35b34801561049357600080fd5b506104b260048036038101908080359060200190929190505050610fde565b005b3480156104c057600080fd5b506104c961126f565b6040518080602001828103825283818151815260200191508051906020019080838360005b838110156105095780820151818401526020810190506104ee565b50505050905090810190601f1680156105365780820380516001836020036101000a031916815260200191505b509250505060405180910390f35b600260009054906101000a900473ffffffffffffffffffffffffffffffffffffffff1681565b600260009054906101000a900473ffffffffffffffffffffffffffffffffffffffff1673ffffffffffffffffffffffffffffffffffffffff163373ffffffffffffffffffffffffffffffffffffffff161415156105c657600080fd5b60018060028111156105d457fe5b600260149054906101000a900460ff1660028111156105ef57fe5b1415156105fb57600080fd5b60028060146101000a81548160ff0219169083600281111561061957fe5b021790555050565b60048054600181600116156101000203166002900480601f0160208091040260200160405190810160405280929190818152602001828054600181600116156101000203166002900480156106b75780601f1061068c576101008083540402835291602001916106b7565b820191906000526020600020905b81548152906001019060200180831161069a57829003601f168201915b505050505081565b6000806000806000806000806000600260009054906101000a900473ffffffffffffffffffffffffffffffffffffffff1673ffffffffffffffffffffffffffffffffffffffff163373ffffffffffffffffffffffffffffffffffffffff1614151561072957600080fd5b600280600281111561073757fe5b600260149054906101000a900460ff16600281111561075257fe5b14151561075e57600080fd5b60009950600098505b600a548910156108b65760078981548110151561078057fe5b9060005260206000200160009054906101000a900473ffffffffffffffffffffffffffffffffffffffff169750600160009054906101000a900473ffffffffffffffffffffffffffffffffffffffff1673ffffffffffffffffffffffffffffffffffffffff1663a33a08b9896040518263ffffffff167c0100000000000000000000000000000000000000000000000000000000028152600401808273ffffffffffffffffffffffffffffffffffffffff1673ffffffffffffffffffffffffffffffffffffffff168152602001915050602060405180830381600087803b15801561086a57600080fd5b505af115801561087e573d6000803e3d6000fd5b505050506040513d602081101561089457600080fd5b81019080805190602001909291905050508a0199508880600101995050610767565b600096505b600a54871015610a5a576007878154811015156108d457fe5b9060005260206000200160009054906101000a900473ffffffffffffffffffffffffffffffffffffffff169550600160009054906101000a900473ffffffffffffffffffffffffffffffffffffffff1673ffffffffffffffffffffffffffffffffffffffff1663a33a08b9876040518263ffffffff167c0100000000000000000000000000000000000000000000000000000000028152600401808273ffffffffffffffffffffffffffffffffffffffff1673ffffffffffffffffffffffffffffffffffffffff168152602001915050602060405180830381600087803b1580156109be57600080fd5b505af11580156109d2573d6000803e3d6000fd5b505050506040513d60208110156109e857600080fd5b810190808051906020019092919050505061271003600860008873ffffffffffffffffffffffffffffffffffffffff1673ffffffffffffffffffffffffffffffffffffffff168152602001908152602001600020540260096000828254019250508190555086806001019750506108bb565b89600a546127100203606460095402811515610a7257fe5b04600981905550600094505b600a54851015610dbb5760009350600785815481101515610a9b57fe5b9060005260206000200160009054906101000a900473ffffffffffffffffffffffffffffffffffffffff169250600860008473ffffffffffffffffffffffffffffffffffffffff1673ffffffffffffffffffffffffffffffffffffffff16815260200190815260200160002054606402600954101515610b66576064600860008573ffffffffffffffffffffffffffffffffffffffff1673ffffffffffffffffffffffffffffffffffffffff1681526020019081526020016000205460640260095403029350610bb3565b6064600954600860008673ffffffffffffffffffffffffffffffffffffffff1673ffffffffffffffffffffffffffffffffffffffff16815260200190815260200160002054606402030293505b83606402600954600a54600160009054906101000a900473ffffffffffffffffffffffffffffffffffffffff1673ffffffffffffffffffffffffffffffffffffffff1663a33a08b9876040518263ffffffff167c0100000000000000000000000000000000000000000000000000000000028152600401808273ffffffffffffffffffffffffffffffffffffffff1673ffffffffffffffffffffffffffffffffffffffff168152602001915050602060405180830381600087803b158015610c7a57600080fd5b505af1158015610c8e573d6000803e3d6000fd5b505050506040513d6020811015610ca457600080fd5b810190808051906020019092919050505002020191506009546001600a54010282811515610cce57fe5b049150600160009054906101000a900473ffffffffffffffffffffffffffffffffffffffff1673ffffffffffffffffffffffffffffffffffffffff1663fc3caadf84846040518363ffffffff167c0100000000000000000000000000000000000000000000000000000000028152600401808373ffffffffffffffffffffffffffffffffffffffff1673ffffffffffffffffffffffffffffffffffffffff16815260200182815260200192505050600060405180830381600087803b158015610d9657600080fd5b505af1158015610daa573d6000803e3d6000fd5b505050508480600101955050610a7e565b50505050505050505050565b60086020528060005260406000206000915090505481565b60035481565b60058054600181600116156101000203166002900480601f016020809104026020016040519081016040528092919081815260200182805460018160011615610100020316600290048015610e7b5780601f10610e5057610100808354040283529160200191610e7b565b820191906000526020600020905b815481529060010190602001808311610e5e57829003601f168201915b505050505081565b600260009054906101000a900473ffffffffffffffffffffffffffffffffffffffff1673ffffffffffffffffffffffffffffffffffffffff163373ffffffffffffffffffffffffffffffffffffffff16141515610edf57600080fd5b6000806002811115610eed57fe5b600260149054906101000a900460ff166002811115610f0857fe5b141515610f1457600080fd5b6000821415610f2a576000600381905550610f34565b8142016003819055505b6001600260146101000a81548160ff02191690836002811115610f5357fe5b02179055505050565b600781815481101515610f6b57fe5b906000526020600020016000915054906101000a900473ffffffffffffffffffffffffffffffffffffffff1681565b600a5481565b600260149054906101000a900460ff1681565b6000809054906101000a900473ffffffffffffffffffffffffffffffffffffffff1681565b60095481565b6001806002811115610fec57fe5b600260149054906101000a900460ff16600281111561100757fe5b14151561101357600080fd5b600060035411801561102757506003544210155b156110545760028060146101000a81548160ff0219169083600281111561104a57fe5b021790555061126b565b6000600860003373ffffffffffffffffffffffffffffffffffffffff1673ffffffffffffffffffffffffffffffffffffffff1681526020019081526020016000205411156110e55781600860003373ffffffffffffffffffffffffffffffffffffffff1673ffffffffffffffffffffffffffffffffffffffff1681526020019081526020016000208190555061126a565b81600860003373ffffffffffffffffffffffffffffffffffffffff1673ffffffffffffffffffffffffffffffffffffffff1681526020019081526020016000208190555060073390806001815401808255809150509060018203906000526020600020016000909192909190916101000a81548173ffffffffffffffffffffffffffffffffffffffff021916908373ffffffffffffffffffffffffffffffffffffffff160217905550600a81905550600160009054906101000a900473ffffffffffffffffffffffffffffffffffffffff1673ffffffffffffffffffffffffffffffffffffffff1663ef8779ed336040518263ffffffff167c0100000000000000000000000000000000000000000000000000000000028152600401808273ffffffffffffffffffffffffffffffffffffffff1673ffffffffffffffffffffffffffffffffffffffff168152602001915050600060405180830381600087803b15801561125157600080fd5b505af1158015611265573d6000803e3d6000fd5b505050505b5b5050565b60068054600181600116156101000203166002900480601f0160208091040260200160405190810160405280929190818152602001828054600181600116156101000203166002900480156113055780601f106112da57610100808354040283529160200191611305565b820191906000526020600020905b8154815290600101906020018083116112e857829003601f168201915b5050505050815600a165627a7a7230582028bfb442a27410130bba5eb17d06f444423aadc9354ad92bc5ab22ff4ce3fddc0029a165627a7a7230582018797770a8bd04643e2785a8bd14945a35495118bd7ff3746b70d3ca9760c2a30029",
  "source": "pragma solidity ^0.4.17;\nimport \"./Session.sol\";\ncontract Main {\n\n    // Structure to hold details of Bidder\n    struct IParticipant {\n        address  account ;\n        string fullname;\n        string email;\n        uint nSessions;\n        uint deviation;\n    }\n\n    address public admin;\n\n    // TODO: Variables\n    // nSession contain number of session init\n    uint public nSessions;\n    // nParticipant contain number of participant\n    uint public nParticipants;\n    // mapping address of session to list participant of Session\n    //mapping(address => IParticipant[]) public participantOfSession;\n\n    //\n    address[] public iParticipants;\n    // IProduct contain information of product\n    struct IProduct{\n        string name;\n        string desciption;\n        string image;\n        bool status;\n        uint price;\n    }\n    // mapping index product to struct product\n    //mapping(uint => IProduct) public products;\n    // mapping address of session to Product\n    //mapping(address => IProduct) public productOfSession;\n    // indexProduct contain id of product\n    uint public indexProduct;\n    //IProduct[] public productList;\n    // array contain address of session contract\n    address[] public sessions;\n    // mapping address of participant to struct participant\n    mapping(address => IParticipant) public participants;\n    // enum contain state of session\n    enum State {CREATED,ONGOING,CLOSED}\n    // constructor of main contract\n    function Main() public{\n        admin = msg.sender;\n    }\n    // Add a Session Contract address into Main Contract. Use to link Session with Main\n    function addSession(address session) public {\n        nSessions = sessions.push(session);\n    }\n\n    // initiate Session from main contract\n\n    function initSession(string _name,string _description,string _image) public onlyAdmin{\n        //IProduct storage pro = products[indexProduct];\n        // products[indexProduct].name = _name;\n        // products[indexProduct].desciption = _dnescription;\n        // products[indexProduct].image = _image;\n        // products[indexProduct].status = true;\n        // products[indexProduct].price = 0;\n        new Session(address(this),_name,_description,_image);\n        //indexProduct++;\n    }\n    // function allow participant register to system pricing\n    function register(string _fullname,string _email) public {\n        if(participants[msg.sender].account == address(0)){\n            participants[msg.sender].account = msg.sender;\n            participants[msg.sender].fullname = _fullname;\n            participants[msg.sender].email = _email;\n            participants[msg.sender].nSessions = 0;\n            participants[msg.sender].deviation = 0;\n            nParticipants = iParticipants.push(msg.sender);\n        }\n    }\n    // functinon mapping struct to session\n    // function mapProductToSession(address _addrSession,uint _index) public{\n    //     productOfSession[_addrSession] = products[_index];\n    // }\n    modifier onlyAdmin(){\n        require(msg.sender == admin);\n        _;\n    }\n    // function to increment number of Session that participant joined\n\n    function increNumSessionOfParticipant(address _address) public{\n        participants[_address].nSessions += 1;\n    }\n    //function to get deviation of participant\n    function getDeviation(address _address) public view returns(uint){\n        return participants[_address].deviation;\n    }\n    //function to update deviation of participant\n    function setDeviation(address _address,uint _devi) public {\n        participants[_address].deviation = _devi;\n    }\n    // function addParticipantToSession(address _addrSession,address _addrPar){\n    //     participantOfSession[_addrSession].push(_addrPar);\n    // }\n    // // function to get information of a session\n    // function getSessionIfo(address _sessionAddr) public view returns(){\n    //     Session session = Session(_sessionAddr);\n    //     State state = State(uint(session.state));\n    //     IProduct _product = getProductInfo(session.productName);\n    // }\n\n}\n",
  "sourcePath": "C:\\Users\\chunglv6\\Desktop\\project\\FunixPricingChain\\FunixPricingChain\\truffle\\contracts\\Main.sol",
  "compiler": {
    "name": "solc",
    "version": "0.4.26+commit.4563c3fc.Emscripten.clang"
  },
  "schemaVersion": "3.0.19",
  "updatedAt": "2019-12-15T06:16:26.890Z",
  "networkType": "ethereum",
  "devdoc": {
    "methods": {}
  },
  "userdoc": {
    "methods": {}
  }
}