{
  "contractName": "Session",
  "abi": [
    {
      "constant": true,
      "inputs": [],
      "name": "creator",
      "outputs": [
        {
          "name": "",
          "type": "address"
        }
      ],
      "payable": false,
      "stateMutability": "view",
      "type": "function"
    },
    {
      "constant": true,
      "inputs": [],
      "name": "name",
      "outputs": [
        {
          "name": "",
          "type": "string"
        }
      ],
      "payable": false,
      "stateMutability": "view",
      "type": "function"
    },
    {
      "constant": true,
      "inputs": [
        {
          "name": "",
          "type": "address"
        }
      ],
      "name": "pricings",
      "outputs": [
        {
          "name": "",
          "type": "uint256"
        }
      ],
      "payable": false,
      "stateMutability": "view",
      "type": "function"
    },
    {
      "constant": true,
      "inputs": [],
      "name": "timeOut",
      "outputs": [
        {
          "name": "",
          "type": "uint256"
        }
      ],
      "payable": false,
      "stateMutability": "view",
      "type": "function"
    },
    {
      "constant": true,
      "inputs": [],
      "name": "description",
      "outputs": [
        {
          "name": "",
          "type": "string"
        }
      ],
      "payable": false,
      "stateMutability": "view",
      "type": "function"
    },
    {
      "constant": true,
      "inputs": [
        {
          "name": "",
          "type": "uint256"
        }
      ],
      "name": "iParticipants",
      "outputs": [
        {
          "name": "",
          "type": "address"
        }
      ],
      "payable": false,
      "stateMutability": "view",
      "type": "function"
    },
    {
      "constant": true,
      "inputs": [],
      "name": "nParticipants",
      "outputs": [
        {
          "name": "",
          "type": "uint256"
        }
      ],
      "payable": false,
      "stateMutability": "view",
      "type": "function"
    },
    {
      "constant": true,
      "inputs": [],
      "name": "state",
      "outputs": [
        {
          "name": "",
          "type": "uint8"
        }
      ],
      "payable": false,
      "stateMutability": "view",
      "type": "function"
    },
    {
      "constant": true,
      "inputs": [],
      "name": "mainContract",
      "outputs": [
        {
          "name": "",
          "type": "address"
        }
      ],
      "payable": false,
      "stateMutability": "view",
      "type": "function"
    },
    {
      "constant": true,
      "inputs": [],
      "name": "proposedPrice",
      "outputs": [
        {
          "name": "",
          "type": "uint256"
        }
      ],
      "payable": false,
      "stateMutability": "view",
      "type": "function"
    },
    {
      "constant": true,
      "inputs": [],
      "name": "image",
      "outputs": [
        {
          "name": "",
          "type": "string"
        }
      ],
      "payable": false,
      "stateMutability": "view",
      "type": "function"
    },
    {
      "inputs": [
        {
          "name": "_mainContract",
          "type": "address"
        },
        {
          "name": "_name",
          "type": "string"
        },
        {
          "name": "_description",
          "type": "string"
        },
        {
          "name": "_image",
          "type": "string"
        }
      ],
      "payable": false,
      "stateMutability": "nonpayable",
      "type": "constructor"
    },
    {
      "constant": false,
      "inputs": [
        {
          "name": "_timeOut",
          "type": "uint256"
        }
      ],
      "name": "startSession",
      "outputs": [],
      "payable": false,
      "stateMutability": "nonpayable",
      "type": "function"
    },
    {
      "constant": false,
      "inputs": [],
      "name": "closeSession",
      "outputs": [],
      "payable": false,
      "stateMutability": "nonpayable",
      "type": "function"
    },
    {
      "constant": false,
      "inputs": [
        {
          "name": "_amount",
          "type": "uint256"
        }
      ],
      "name": "priceProduct",
      "outputs": [],
      "payable": false,
      "stateMutability": "nonpayable",
      "type": "function"
    },
    {
      "constant": false,
      "inputs": [],
      "name": "calculateFinalPrice",
      "outputs": [],
      "payable": false,
      "stateMutability": "nonpayable",
      "type": "function"
    }
  ],
  "bytecode": "0x60806040523480156200001157600080fd5b50604051620017223803806200172283398101806040528101908080519060200190929190805182019291906020018051820192919060200180518201929190505050836000806101000a81548173ffffffffffffffffffffffffffffffffffffffff021916908373ffffffffffffffffffffffffffffffffffffffff16021790555083600160006101000a81548173ffffffffffffffffffffffffffffffffffffffff021916908373ffffffffffffffffffffffffffffffffffffffff160217905550600160009054906101000a900473ffffffffffffffffffffffffffffffffffffffff1673ffffffffffffffffffffffffffffffffffffffff1663f851a4406040518163ffffffff167c0100000000000000000000000000000000000000000000000000000000028152600401602060405180830381600087803b1580156200015c57600080fd5b505af115801562000171573d6000803e3d6000fd5b505050506040513d60208110156200018857600080fd5b8101908080519060200190929190505050600260006101000a81548173ffffffffffffffffffffffffffffffffffffffff021916908373ffffffffffffffffffffffffffffffffffffffff1602179055506000600260146101000a81548160ff02191690836002811115620001f957fe5b02179055508260049080519060200190620002169291906200032a565b5081600590805190602001906200022f9291906200032a565b508060069080519060200190620002489291906200032a565b50600160009054906101000a900473ffffffffffffffffffffffffffffffffffffffff1673ffffffffffffffffffffffffffffffffffffffff1663f390dd86306040518263ffffffff167c0100000000000000000000000000000000000000000000000000000000028152600401808273ffffffffffffffffffffffffffffffffffffffff1673ffffffffffffffffffffffffffffffffffffffff168152602001915050600060405180830381600087803b1580156200030757600080fd5b505af11580156200031c573d6000803e3d6000fd5b5050505050505050620003d9565b828054600181600116156101000203166002900490600052602060002090601f016020900481019282601f106200036d57805160ff19168380011785556200039e565b828001600101855582156200039e579182015b828111156200039d57825182559160200191906001019062000380565b5b509050620003ad9190620003b1565b5090565b620003d691905b80821115620003d2576000816000905550600101620003b8565b5090565b90565b61133980620003e96000396000f3006080604052600436106100db576000357c0100000000000000000000000000000000000000000000000000000000900463ffffffff16806302d05d3f146100e057806306f4bcbf1461013757806306fdde031461014e57806346eb54e9146101de5780635e8ce731146101f5578063614d85e11461024c5780637284e416146102775780637712761214610307578063a3b9c9e514610334578063b63bc3b4146103a1578063c19d93fb146103cc578063d270e7ab14610405578063e3635bfd1461045c578063efa492de14610487578063f3ccaac0146104b4575b600080fd5b3480156100ec57600080fd5b506100f5610544565b604051808273ffffffffffffffffffffffffffffffffffffffff1673ffffffffffffffffffffffffffffffffffffffff16815260200191505060405180910390f35b34801561014357600080fd5b5061014c61056a565b005b34801561015a57600080fd5b50610163610621565b6040518080602001828103825283818151815260200191508051906020019080838360005b838110156101a3578082015181840152602081019050610188565b50505050905090810190601f1680156101d05780820380516001836020036101000a031916815260200191505b509250505060405180910390f35b3480156101ea57600080fd5b506101f36106bf565b005b34801561020157600080fd5b50610236600480360381019080803573ffffffffffffffffffffffffffffffffffffffff169060200190929190505050610dc7565b6040518082815260200191505060405180910390f35b34801561025857600080fd5b50610261610ddf565b6040518082815260200191505060405180910390f35b34801561028357600080fd5b5061028c610de5565b6040518080602001828103825283818151815260200191508051906020019080838360005b838110156102cc5780820151818401526020810190506102b1565b50505050905090810190601f1680156102f95780820380516001836020036101000a031916815260200191505b509250505060405180910390f35b34801561031357600080fd5b5061033260048036038101908080359060200190929190505050610e83565b005b34801561034057600080fd5b5061035f60048036038101908080359060200190929190505050610f5c565b604051808273ffffffffffffffffffffffffffffffffffffffff1673ffffffffffffffffffffffffffffffffffffffff16815260200191505060405180910390f35b3480156103ad57600080fd5b506103b6610f9a565b6040518082815260200191505060405180910390f35b3480156103d857600080fd5b506103e1610fa0565b604051808260028111156103f157fe5b60ff16815260200191505060405180910390f35b34801561041157600080fd5b5061041a610fb3565b604051808273ffffffffffffffffffffffffffffffffffffffff1673ffffffffffffffffffffffffffffffffffffffff16815260200191505060405180910390f35b34801561046857600080fd5b50610471610fd8565b6040518082815260200191505060405180910390f35b34801561049357600080fd5b506104b260048036038101908080359060200190929190505050610fde565b005b3480156104c057600080fd5b506104c961126f565b6040518080602001828103825283818151815260200191508051906020019080838360005b838110156105095780820151818401526020810190506104ee565b50505050905090810190601f1680156105365780820380516001836020036101000a031916815260200191505b509250505060405180910390f35b600260009054906101000a900473ffffffffffffffffffffffffffffffffffffffff1681565b600260009054906101000a900473ffffffffffffffffffffffffffffffffffffffff1673ffffffffffffffffffffffffffffffffffffffff163373ffffffffffffffffffffffffffffffffffffffff161415156105c657600080fd5b60018060028111156105d457fe5b600260149054906101000a900460ff1660028111156105ef57fe5b1415156105fb57600080fd5b60028060146101000a81548160ff0219169083600281111561061957fe5b021790555050565b60048054600181600116156101000203166002900480601f0160208091040260200160405190810160405280929190818152602001828054600181600116156101000203166002900480156106b75780601f1061068c576101008083540402835291602001916106b7565b820191906000526020600020905b81548152906001019060200180831161069a57829003601f168201915b505050505081565b6000806000806000806000806000600260009054906101000a900473ffffffffffffffffffffffffffffffffffffffff1673ffffffffffffffffffffffffffffffffffffffff163373ffffffffffffffffffffffffffffffffffffffff1614151561072957600080fd5b600280600281111561073757fe5b600260149054906101000a900460ff16600281111561075257fe5b14151561075e57600080fd5b60009950600098505b600a548910156108b65760078981548110151561078057fe5b9060005260206000200160009054906101000a900473ffffffffffffffffffffffffffffffffffffffff169750600160009054906101000a900473ffffffffffffffffffffffffffffffffffffffff1673ffffffffffffffffffffffffffffffffffffffff1663a33a08b9896040518263ffffffff167c0100000000000000000000000000000000000000000000000000000000028152600401808273ffffffffffffffffffffffffffffffffffffffff1673ffffffffffffffffffffffffffffffffffffffff168152602001915050602060405180830381600087803b15801561086a57600080fd5b505af115801561087e573d6000803e3d6000fd5b505050506040513d602081101561089457600080fd5b81019080805190602001909291905050508a0199508880600101995050610767565b600096505b600a54871015610a5a576007878154811015156108d457fe5b9060005260206000200160009054906101000a900473ffffffffffffffffffffffffffffffffffffffff169550600160009054906101000a900473ffffffffffffffffffffffffffffffffffffffff1673ffffffffffffffffffffffffffffffffffffffff1663a33a08b9876040518263ffffffff167c0100000000000000000000000000000000000000000000000000000000028152600401808273ffffffffffffffffffffffffffffffffffffffff1673ffffffffffffffffffffffffffffffffffffffff168152602001915050602060405180830381600087803b1580156109be57600080fd5b505af11580156109d2573d6000803e3d6000fd5b505050506040513d60208110156109e857600080fd5b810190808051906020019092919050505061271003600860008873ffffffffffffffffffffffffffffffffffffffff1673ffffffffffffffffffffffffffffffffffffffff168152602001908152602001600020540260096000828254019250508190555086806001019750506108bb565b89600a546127100203606460095402811515610a7257fe5b04600981905550600094505b600a54851015610dbb5760009350600785815481101515610a9b57fe5b9060005260206000200160009054906101000a900473ffffffffffffffffffffffffffffffffffffffff169250600860008473ffffffffffffffffffffffffffffffffffffffff1673ffffffffffffffffffffffffffffffffffffffff16815260200190815260200160002054606402600954101515610b66576064600860008573ffffffffffffffffffffffffffffffffffffffff1673ffffffffffffffffffffffffffffffffffffffff1681526020019081526020016000205460640260095403029350610bb3565b6064600954600860008673ffffffffffffffffffffffffffffffffffffffff1673ffffffffffffffffffffffffffffffffffffffff16815260200190815260200160002054606402030293505b83606402600954600a54600160009054906101000a900473ffffffffffffffffffffffffffffffffffffffff1673ffffffffffffffffffffffffffffffffffffffff1663a33a08b9876040518263ffffffff167c0100000000000000000000000000000000000000000000000000000000028152600401808273ffffffffffffffffffffffffffffffffffffffff1673ffffffffffffffffffffffffffffffffffffffff168152602001915050602060405180830381600087803b158015610c7a57600080fd5b505af1158015610c8e573d6000803e3d6000fd5b505050506040513d6020811015610ca457600080fd5b810190808051906020019092919050505002020191506009546001600a54010282811515610cce57fe5b049150600160009054906101000a900473ffffffffffffffffffffffffffffffffffffffff1673ffffffffffffffffffffffffffffffffffffffff1663fc3caadf84846040518363ffffffff167c0100000000000000000000000000000000000000000000000000000000028152600401808373ffffffffffffffffffffffffffffffffffffffff1673ffffffffffffffffffffffffffffffffffffffff16815260200182815260200192505050600060405180830381600087803b158015610d9657600080fd5b505af1158015610daa573d6000803e3d6000fd5b505050508480600101955050610a7e565b50505050505050505050565b60086020528060005260406000206000915090505481565b60035481565b60058054600181600116156101000203166002900480601f016020809104026020016040519081016040528092919081815260200182805460018160011615610100020316600290048015610e7b5780601f10610e5057610100808354040283529160200191610e7b565b820191906000526020600020905b815481529060010190602001808311610e5e57829003601f168201915b505050505081565b600260009054906101000a900473ffffffffffffffffffffffffffffffffffffffff1673ffffffffffffffffffffffffffffffffffffffff163373ffffffffffffffffffffffffffffffffffffffff16141515610edf57600080fd5b6000806002811115610eed57fe5b600260149054906101000a900460ff166002811115610f0857fe5b141515610f1457600080fd5b6000821415610f2a576000600381905550610f34565b8142016003819055505b6001600260146101000a81548160ff02191690836002811115610f5357fe5b02179055505050565b600781815481101515610f6b57fe5b906000526020600020016000915054906101000a900473ffffffffffffffffffffffffffffffffffffffff1681565b600a5481565b600260149054906101000a900460ff1681565b6000809054906101000a900473ffffffffffffffffffffffffffffffffffffffff1681565b60095481565b6001806002811115610fec57fe5b600260149054906101000a900460ff16600281111561100757fe5b14151561101357600080fd5b600060035411801561102757506003544210155b156110545760028060146101000a81548160ff0219169083600281111561104a57fe5b021790555061126b565b6000600860003373ffffffffffffffffffffffffffffffffffffffff1673ffffffffffffffffffffffffffffffffffffffff1681526020019081526020016000205411156110e55781600860003373ffffffffffffffffffffffffffffffffffffffff1673ffffffffffffffffffffffffffffffffffffffff1681526020019081526020016000208190555061126a565b81600860003373ffffffffffffffffffffffffffffffffffffffff1673ffffffffffffffffffffffffffffffffffffffff1681526020019081526020016000208190555060073390806001815401808255809150509060018203906000526020600020016000909192909190916101000a81548173ffffffffffffffffffffffffffffffffffffffff021916908373ffffffffffffffffffffffffffffffffffffffff160217905550600a81905550600160009054906101000a900473ffffffffffffffffffffffffffffffffffffffff1673ffffffffffffffffffffffffffffffffffffffff1663ef8779ed336040518263ffffffff167c0100000000000000000000000000000000000000000000000000000000028152600401808273ffffffffffffffffffffffffffffffffffffffff1673ffffffffffffffffffffffffffffffffffffffff168152602001915050600060405180830381600087803b15801561125157600080fd5b505af1158015611265573d6000803e3d6000fd5b505050505b5b5050565b60068054600181600116156101000203166002900480601f0160208091040260200160405190810160405280929190818152602001828054600181600116156101000203166002900480156113055780601f106112da57610100808354040283529160200191611305565b820191906000526020600020905b8154815290600101906020018083116112e857829003601f168201915b5050505050815600a165627a7a7230582028bfb442a27410130bba5eb17d06f444423aadc9354ad92bc5ab22ff4ce3fddc0029",
  "source": "pragma solidity ^0.4.17;\n\n// // Interface of Main contract to call from Session contract\n// contract Main {\n//     function addSession(address session) public {}\n//     function increNumSessionOfParticipant(address _address) public {}\n//     function getDeviation(address _address) public {}\n// }\nimport \"./Main.sol\";\n\ncontract Session {\n    // Variable to hold Main Contract Address when create new Session Contract\n    address public mainContract;\n    // Variable to hold Main Contract instance to call functions from Main\n    Main MainContract;\n\n    // TODO: Variables\n    address public creator;\n    enum State {CREATED,ONGOING,CLOSED}\n    State public state;\n    uint public timeOut;\n    string public name;\n    string public description;\n    string public image;\n    address[] public iParticipants;\n    mapping(address => uint) public pricings;\n    uint public proposedPrice;\n    //uint public finalPrice;\n    //string public productName;\n    uint public nParticipants;\n    function Session(address _mainContract,string _name,string _description,string _image) public{\n        // Get Main Contract instance\n        mainContract = _mainContract;\n        MainContract = Main(_mainContract);\n        // TODO: Init Session contract\n        creator = MainContract.admin();\n        state = State.CREATED;\n        name = _name;\n        description = _description;\n        image = _image;\n        // Call Main Contract function to link current contract.\n        MainContract.addSession(address(this));\n    }\n\n    // modifier validState\n    modifier validState(State _state){\n        require(state == _state);\n        _;\n    }\n    // modifier only admin can do action\n    modifier onlyAdmin(){\n        require(msg.sender == creator);\n        _;\n    }\n    // function for admin start Session\n    function startSession(uint _timeOut) public onlyAdmin validState(State.CREATED){\n        if(_timeOut == 0){\n            timeOut = 0;\n        }else{\n            timeOut = now + _timeOut;\n        }\n        state = State.ONGOING;\n    }\n    function closeSession() public onlyAdmin validState(State.ONGOING){\n        state = State.CLOSED;\n    }\n    //function for participant price the product\n    function priceProduct(uint _amount) public validState(State.ONGOING){\n        if(timeOut > 0 && now >= timeOut){\n            state = State.CLOSED;\n        }else{\n            if(pricings[msg.sender] > 0){\n                pricings[msg.sender] = _amount;\n            }else{\n                pricings[msg.sender] = _amount;\n                nParticipants = iParticipants.push(msg.sender);\n                //MainContract.addParticipantToSession(address(this),msg.sender);\n                MainContract.increNumSessionOfParticipant(msg.sender);\n                //nParticipants++;\n            }\n        }\n    }\n\n    //function to calculate proposed price and final price\n    function calculateFinalPrice() public onlyAdmin validState(State.CLOSED){\n        uint totalDeviation = 0;\n        // calculate total Deviatin of all participant in a Session\n        for(uint i = 0; i < nParticipants; i++){\n            address tempPar = iParticipants[i];\n            totalDeviation += MainContract.getDeviation(tempPar);\n        }\n        // caculate proposedPrice\n        for(uint j = 0; j < nParticipants; j++){\n            address _address = iParticipants[j];\n            proposedPrice += pricings[_address]*(10000 - MainContract.getDeviation(_address));\n        }\n        proposedPrice = proposedPrice*100/(10000*nParticipants - totalDeviation);\n        // update Deviation for each participant\n        for(uint k = 0;k < nParticipants; k++){\n            uint deviationNew = 0;\n            address p = iParticipants[k];\n            if(proposedPrice >= 100*pricings[p]){\n                deviationNew = (proposedPrice - 100*pricings[p])*100;\n            }else{\n                deviationNew = (100*pricings[p] - proposedPrice)*100;\n            }\n            uint genDevi = (MainContract.getDeviation(p)*nParticipants*proposedPrice + 100*deviationNew);\n            genDevi = genDevi/((nParticipants + 1)*proposedPrice);\n            MainContract.setDeviation(p,genDevi);\n        }\n        //finalPrice = proposedPrice;\n    }\n}\n",
  "sourcePath": "C:\\Users\\chunglv6\\Desktop\\project\\FunixPricingChain\\FunixPricingChain\\truffle\\contracts\\Session.sol",
  "compiler": {
    "name": "solc",
    "version": "0.4.26+commit.4563c3fc.Emscripten.clang"
  },
  "schemaVersion": "3.0.19",
  "updatedAt": "2019-12-15T06:16:23.192Z",
  "devdoc": {
    "methods": {}
  },
  "userdoc": {
    "methods": {}
  }
}